:020000040800F2
:100000000055002411570008A5560108FD560008A8
:10001000FD560008FD560008FD56000800000000CF
:10002000000000000000000000000000E55700088C
:10003000FD560008000000008157000891FF0008ED
:10004000B1590008B1590008B1590008B159000868
:10005000B1590008B1590008B1590008B159000858
:10006000B1590008B1590008B1590008B159000848
:10007000B1590008B1590008B1590008B159000838
:1002980080F0004002E000BF81F0004142001FBF33
:1002A8005FEA410392EA030F7FEA226C7FEA236C3C
:1002B8006AD04FEA1262D2EB1363C1BFD218414031
:1002C80048404140B8BF5B42192B88BF704710F0C7
:1002D800004F40F4000020F07F4018BF404211F06A
:1002E800004F41F4000121F07F4118BF494292EAD2
:1002F800030F3FD0A2F1010241FA03FC10EB0C00FE
:10030800C3F1200301FA03F100F0004302D549428A
:1003180060EB4000B0F5000F13D3B0F1807F06D337
:1003280040084FEA310102F10102FE2A51D2B1F12F
:10033800004F40EBC25008BF20F0010040EA030024
:100348007047490040EB0000013A28BFB0F5000FA4
:10035800EDD2B0FA80FCACF1080CB2EB0C0200FA5A
:100368000CF0AABF00EBC25052421843BCBFD040A9
:100378001843704792F0000F81F4000106BF80F423
:1003880000000132013BB5E74FEA41037FEA226CE6
:1003980018BF7FEA236C21D092EA030F04D092F0B1
:1003A800000F08BF0846704790EA010F1CBF0020E5
:1003B800704712F07F4F04D1400028BF40F0004042
:1003C800704712F100723CBF00F50000704700F062
:1003D800004343F0FE4040F4000070477FEA226289
:1003E80016BF08467FEA23630146420206BF5FEA5A
:1003F800412390EA010F40F4800070474FF000035A
:1004080004E000BF10F0004348BF40425FEA000C20
:1004180008BF704743F0964301464FF000001CE0C8
:1004280050EA010208BF70474FF000030AE000BF1E
:1004380050EA010208BF704711F0004302D540425C
:1004480061EB41015FEA010C02BF844601460020CE
:1004580043F0B64308BFA3F18053A3F50003BCFAE9
:100468008CF2083AA3EBC25310DB01FA02FC634496
:1004780000FA02FCC2F12002BCF1004F20FA02F29D
:1004880043EB020008BF20F00100704702F1200290
:1004980001FA02FCC2F1200250EA4C0021FA02F2F1
:1004A80043EB020008BF20EADC7070474FF0FF0CF6
:1004B8001CEAD0521EBF1CEAD15392EA0C0F93EAF1
:1004C8000C0F6FD01A4480EA010C400218BF5FEA93
:1004D80041211ED04FF0006343EA501043EA511106
:1004E800A0FB01310CF00040B1F5000F3EBF490000
:1004F80041EAD3715B0040EA010062F17F02FD2A04
:100508001DD8B3F1004F40EBC25008BF20F00100E6
:10051800704790F0000F0CF0004C08BF49024CEAFD
:10052800502040EA51207F3AC2BFD2F1FF0340EA8F
:10053800C250704740F400004FF00003013A5DDC00
:1005480012F1190FDCBF00F000407047C2F1000241
:10055800410021FA02F1C2F1200200FA02FC5FEA2E
:10056800310040F1000053EA4C0308BF20EADC7078
:10057800704792F0000F00F0004C02BF400010F4EA
:10058800000F013AF9D040EA0C0093F0000F01F097
:10059800004C02BF490011F4000F013BF9D041EAB9
:1005A8000C018FE70CEAD15392EA0C0F18BF93EABB
:1005B8000C0F0AD030F0004C18BF31F0004CD8D1E5
:1005C80080EA010000F00040704790F0000F17BF6C
:1005D80090F0004F084691F0000F91F0004F14D0B2
:1005E80092EA0C0F01D142020FD193EA0C0F03D10A
:1005F8004B0218BF084608D180EA010000F000400D
:1006080040F0FE4040F40000704740F0FE4040F4E7
:10061800400070474FF0FF0C1CEAD0521EBF1CEA86
:10062800D15392EA0C0F93EA0C0F69D0A2EB0302A4
:1006380080EA010C49024FEA402037D04FF080533E
:1006480043EA111143EA10130CF000408B4238BF03
:100658005B0042F17D024FF4000C8B4224BF5B1A11
:1006680040EA0C00B3EB510F24BFA3EB510340EA5F
:100678005C00B3EB910F24BFA3EB910340EA9C000D
:10068800B3EBD10F24BFA3EBD10340EADC001B017D
:1006980018BF5FEA1C1CE0D1FD2A3FF650AF8B4221
:1006A80040EBC25008BF20F0010070470CF0004C2E
:1006B8004CEA50207F32C2BFD2F1FF0340EAC25059
:1006C800704740F400004FF00003013A37E792F01A
:1006D800000F00F0004C02BF400010F4000F013A78
:1006E800F9D040EA0C0093F0000F01F0004C02BF73
:1006F800490011F4000F013BF9D041EA0C0195E7DC
:100708000CEAD15392EA0C0F08D142027FF47DAF74
:1007180093EA0C0F7FF470AF084676E793EA0C0F64
:1007280004D14B023FF44CAF08466EE730F0004C62
:1007380018BF31F0004CCAD130F000427FF45CAFF2
:1007480031F000437FF43CAF5FE700BF42000ED2B8
:10075800B2F1FE4F0BD34FF09E03B3EB126209D4F4
:100768004FEA002343F0004323FA02F070474FF0AA
:100778000000704712F1610F01D1420202D14FF01F
:10078800FF3070474FF00000704700BF7BB972B967
:100798000029BEBF00204FF0004106E008BF002836
:1007A8001CBF6FF000414FF0FF3000F057B8ADF1BB
:1007B800080C6DE904CE002909DB002B1ADB00F0D8
:1007C80069F8DDF804E0DDE9022304B0704740422F
:1007D80061EB4101002B1BDB00F05CF8DDF804E065
:1007E800DDE9022304B0404261EB4101524263EB70
:1007F80043037047524263EB430300F04BF8DDF8C4
:1008080004E0DDE9022304B0404261EB4101704796
:10081800524263EB430300F03DF8DDF804E0DDE904
:10082800022304B0524263EB4303704753B94AB9F9
:10083800002908BF00281CBF4FF0FF314FF0FF30E0
:1008480000F00CB8ADF1080C6DE904CE00F022F808
:10085800DDF804E0DDE9022304B07047704700BF0B
:1008680010F8012B11F8013B012A28BF9A42F7D052
:10087800D01A7047034611F8012B03F8012B002A00
:10088800F9D17047034613F8012B002AFBD1181A37
:10089800013870472DE9F04786468C460846089E81
:1008A800154674461946002B40F0C2808542B2FABC
:1008B80082F245D94AB1C2F1200300FA02FC2EFAAD
:1008C80003F3954043EA0C0C94404FEA154EA8B246
:1008D800BCFBFEF8230C0EFB18CC08FB00F943EA1E
:1008E8000C43994528D9EB1808F1FF3704D29945EC
:1008F80002D9A8F102072B44A3EB0903A4B2B3FB66
:10090800FEFC0EFB1C330CFB00F044EA0344A0423F
:1009180014D92C190CF1FF3304D2A04202D9ACF13E
:1009280002032C44241A43EA07401EB1D440002392
:1009380034607360BDE8F0874746DDE76346F1E75A
:1009480092BB431B01214FEA154EAFB2B3FBFEFC2D
:10095800200C0EFB1C330CFB07F840EA03439845B8
:1009680062D9EB180CF1FF3004D2984502D9ACF1EA
:1009780002002B44A3EB0803A4B2B3FBFEFC0EFB5E
:100988001C330CFB07F744EA0344A7424ED92C1941
:100998000CF1FF3304D2A74202D9ACF102032C4474
:1009A800E41B43EA0040C0E7C2F1200320FA03F148
:1009B800954090402EFA03F303434FEA154EAFB229
:1009C800B1FBFEFC0EFB1C10190C0CFB07F841EAEE
:1009D8000041884504FA02F422D969180CF1FF3065
:1009E80004D2884502D9ACF102002944A1EB0801E0
:1009F8009BB2B1FBFEFC0EFB1C110CFB07F743EA94
:100A080001439F420ED9EB180CF1FF3104D29F42EB
:100A180002D9ACF102012B44DB1B41EA004192E709
:100A28006046E3E76146F7E76046A3E76346B7E752
:100A3800834206D916B9002108467BE7C6E900E0DB
:100A4800F9E7B3FA83F78FB9834201D3724508D81F
:100A5800BEEB020460EB030301209C461EB9002193
:100A680068E73846FAE7C6E9004CF8E7C7F1200C12
:100A7800BB4022FA0CF41C432EFA0CF120FA0CF3BA
:100A8800B84001434FEA14490EFA07F5B3FBF9F8E9
:100A98001FFA84FE09FB18300B0C08FB0EFA43EA18
:100AA80000439A4502FA07F240D9E31808F1FF30EB
:100AB80004D29A4502D9A8F102002344A3EB0A0301
:100AC80089B2B3FBF9F809FB183308FB0EFE41EABB
:100AD80003418E452CD9611808F1FF3304D28E45A5
:100AE80002D9A8F10203214443EA0040A0FB02987E
:100AF800A1EB0E014145CE46434602D306D14D45F2
:100B080004D2B9EB020E68EB04030138002EA6D01C
:100B1800B5EB0E0261EB030101FA0CFC22FA07F3B4
:100B28004CEA0303F940C6E9003198E74046C5E7B7
:100B38004346D9E7000000002DE9F047044688B095
:100B48008846174619F0F2FE0A220023FFF76EFEC8
:100B5800B8F1010F06460D4607D102460B4620465E
:100B6800274913F0CFFC002011E07F68254839465B
:100B7800FFF776FE70B139462348FFF771FE48B19A
:100B880020463A46214913F0D9FC6FF0040008B01A
:100B9800BDE8F0873046294617A3D3E90023FFF7BD
:100BA800F5FD06460D4610461946194A0023FFF77B
:100BB800EDFD80460F46104619464EF6602200238A
:100BC800FFF7E4FD82468946104619464FF47A72CB
:100BD8000023FFF7DBFDCDE902A9CDE90623CDE926
:100BE800040132462B460B492046CDE9008713F015
:100BF80089FCB8E7AFF30080005C26050000000020
:100C0800B7CE0108C8CE0108CBCE0108D4CE010862
:100C180080EE3600ECCE01082DE9884800AF284C5C
:100C2800284D22692046A168136823F00103136048
:100C38004FF420220B6800219847234812F00AFE3F
:100C48002B6803F00703022B04D9204A0321284606
:100C580013F0ECF9DFF868801D4EDFF87890A36890
:100C6800012140465B699847326814230132B2FB80
:100C7800F3FB03FB1B2B3260BBF1000F19D15108AA
:100C8800484612F0E7FD2B685B0712D5EA4688B0A4
:100C980033686A46104951611049C2E906130423B2
:100CA80042F8103F4FF404515B46064801F07CFCC3
:100CB800D546002141F2883019F06CFDCFE700BF1E
:100CC800FCB10108600B002418C601083EC60108E3
:100CD800A81E002454C601087AC6010812CC0108CF
:100CE80090B585B0022100AF15F08BFD014600B329
:100CF80010233A46012008F039F90F48394612F016
:100D0800A9FD0E48036803F00703022B11D96C46AE
:100D180088B06A460A4BC2E905374FF400739383DB
:100D2800084B42F8103F00234FF4E65101F03CFC19
:100D3800A5461437BD4690BD92C60108600B002435
:100D4800C3C60108030000010F498B4208BF012AEE
:100D580008B5029803D1BDE80840FFF7C1BF8B4230
:100D680008BF022A0ED1094812F074FD084803682A
:100D780003F00703022B05D9064A0321BDE8084002
:100D880013F054B908BD00BF000030E0DDC601080B
:100D9800600B002414C7010808B50A4819F06BF95C
:100DA80060B9094812F056FD084803685B0707D088
:100DB800074A0121BDE8084013F038B9FFF72CFFB6
:100DC80008BD00BFFCB1010829C70108600B002459
:100DD80046C701082DE9F04FADB008239F4802AF80
:100DE8009F4C7B6012F036FD9E4812F033FD9E4802
:100DF80012F030FD236803F00703022B04D99B4A45
:100E08000321204613F012F9994812F023FD07F048
:100E180095FA054658B9974812F01CFD23685807FB
:100E280022D0954A01218E4813F000F91CE093481E
:100E38000322934B1E26DFF84C824360924BDFF867
:100E48004C92C0E9022308F0A3FA914812F002FD7F
:100E5800284617F0BAFE1E218E4812F0FBFC02212C
:100E6800284615F0CEFC40B341F292018A4812F0B0
:100E7800F1FC236803F00703022B06D941F2920321
:100E8800864A0321764813F0DAF80121062208463B
:100E980005F07EF9051E29462ADA814812F0DAFCA7
:100EA8002368590705D07F4A2B4601216C4813F067
:100EB800C6F8AC37BD46BDE8F08F013E42F210706F
:100EC800002119F067FC08FB06F3B3F1333FC6D8DD
:100ED8003146484612F0BEFC002EC0D1724812F0CE
:100EE800B9FC236813F0060FBED0704A02219AE7B6
:100EF8006F4812F0AFFC6F4A0023C7E902230822AB
:100F08002846B91805F076F9061E10DA31466A48FF
:100F180012F0A0FC23685B0705D0684A334601211C
:100F28004F4813F08CF8284614F0B8FDC1E741F299
:100F38009201634812F08EFC0121284605F086F9DB
:100F4800061E09DA31465F4812F084FC23685C0704
:100F5800E9D05D4A3346E2E75C4812F07BFC23683F
:100F680003F00703022B04D9594A03213C4813F024
:100F78005DF8584812F06EFC3A1D07F1100128463A
:100F880005F08EF9B0F100080DDA5348414612F029
:100F980061FC23685807ECD0504A43460121304889
:100FA80013F04DF8E5E707F11806102307F11401CF
:100FB8000120324607F0DAFF7A8A3146484852BAA9
:100FC80092B212F047FC236803F00703022B16D9EC
:100FD8007B8AE9468AB05BBA02AA9BB2D3614FF416
:100FE800007340491384404BC2E9051642F8103F8C
:100FF80000234FF413511A4801F0D6FACD464FF0AA
:10100800000A07F128098022404653464946CDE99F
:1010180000AA05F0A7F9061E0DDA3146334812F08A
:1010280019FC2368590714D0314A334601210C486A
:1010380013F005F80DE061D12E4812F00BFC23687F
:1010480003F00703022B04D92B4A0321044812F0AA
:10105800EDFF404614F022FD8BE700BF5BC7010897
:10106800600B00248DC70108C3C70108E6C7010843
:1010780003C801082BC8010852C80108500E0024F3
:10108800510D0008CDCCCCCC000030E0C6C801081A
:1010980071C801088AC801080BC9010839C90108C3
:1010A8005DC9010881C90108D6CB0108FEC801083D
:1010B8009DC9010801001092C3C90108DBC90108D4
:1010C800EBC9010804CA01081ECA010830CA010890
:1010D80055CA01087CCA0108A4CA0108BECA010889
:1010E800D0CA0108F5CA01080400000111CB0108A3
:1010F80029CB010839CB010856CB010806F1A80312
:1011080031461D48DA1902F880AC4A4612F0A2FBB3
:101118002268520716D5EB468AB002AA174B40F24E
:101128000241C2F8209053619184154B1549C2E9D8
:10113800063642F8101F4FF434515346124801F056
:1011480033FADD460023324649464046CDE90033AE
:1011580005F0D2F8061E314609DA0C4812F07AFB7F
:1011680023685B073FF475AF094A33465EE70948D1
:1011780012F070FB43E700BF6ACB01087BCB010884
:101188000DCC010805000001600B002495CB010877
:10119800ADCB0108BDCB010830B5C0430A440C4DA6
:1011A800914201D1C04330BD11F8013B83EA0004EC
:1011B80004F00F0455F8244084EA101080EA131351
:1011C80003F00F0355F8233083EA1010E8E700BF57
:1011D8000CBC01082DE9F04F91B0840705460E4676
:1011E800009302F00403DDF868800293C2F3C2039F
:1011F800039203F10103059340F0BA81041D30B155
:10120800072909D86FF01B0011B0BDE8F08F01F075
:1012180007063444C6F10806009B4FF000094FF05A
:10122800040A591E4FF0FF334F46CB4601935346ED
:10123800CDF810900DB1009A22600598002800F3AF
:10124800E8809848009A824203D397488242C0F0C7
:10125800E080039AA4EB050E92074FEA9E0000F186
:1012680003810F2F00F2B180002D00F0058107F1F6
:1012780040020DEB020C019A0CF8200C0CF8102C13
:10128800049801300490E7E07A285DD84B280ED8FE
:10129800472859D829282DD8252852D054D820286D
:1012A8007AD02338D0F1000B4BEB000B74E04C38AC
:1012B8002E2849D8DFE800F0704848484848484890
:1012C800484848484B484848484848484859484B7F
:1012D8004B595959704B6D487048184B18484882FB
:1012E8007F4B48484B487F0000204FF0000B4FF0E1
:1012F800040A38E02A380122C0B202FA00F010EAE3
:101308000E0F49D110F0625C2FD110EA020B43D0C6
:101318006046013C5444B4FBFAF40AFB04F4002D83
:1013280061D0A3EB050CA444B4453FF66BAF00288D
:1013380068D1042B47D158F8043B236004340423B4
:101348002AE0019A013A01924FF0000B24E011F8CB
:10135800010C6C2834D111F8023C00206C2B834618
:10136800C5D14FF0080A5346D3E708F107080734F8
:1013780028F0070824F00704F8E802AB35B106980E
:101388002044B0423FF63EAFC4E900AB08344FF00A
:10139800000B4FF0080A534611F8010F002878D0C7
:1013A800BBF1000F7FF470AF2528F5D1019B4FF0FA
:1013B800010B013301934FF0040AECE7584694E718
:1013C80000208346A5E7082B02D06FF015001BE725
:1013D80008F1070828F00708F8E80223C4E9002301
:1013E80008340823D8E768B9042B02D108F10408A7
:1013F800A4E7082BE9D108F1070828F0070808F145
:101408000808EDE7059A013A059258F8042B00926E
:1014180010E7039A900720D5A4EB050E4FF0010CB6
:101428004FEA9E00BEF5007FCFD20F2FCDD8F5B181
:1014380007F14002C0B20DEB020E019A0EF8200C23
:101448000EF8102CBCF1000F3FF41AAF60F07F00CB
:1014580009F101090EF8200C0137C5F1080204341E
:101468004FF6DA7E069297E74FF0000CDAE7BCF108
:10147800000F01D00136EFE7029802360028EBD1C1
:101488000098CDE90631FFF7FDF90644DDE906319C
:10149800E2E7631BB3F5806F97D23DB9A6F1080464
:1014A800E018B1E654AF010890FA01089B08029AC7
:1014B80028602B709DF81030C2B1EB7085F802904F
:1014C800B9F1000F05D008A80022C5F1010C974218
:1014D8000ED1C5F101030DF120084FF0000A0DF1FE
:1014E800300B0193574512D1601B8DE66B70E5E711
:1014F80010F8013B190608D50CEB040E03F07F0326
:10150800B6453FF67FAE04F8013B0132DFE7B9F19B
:10151800000F03D098F90020002A17DB029BD3B1F3
:101528001AF80B2004F8012B0022019B181910440B
:10153800B0423FF667AE98F80000009904F8010B36
:101548002046039219F007FC039A14440AF1010A91
:1015580008F10108C6E798F8002055F822300093F2
:10156800029B009845F82230FFF78CF9421CDCE713
:101578006FF00D0048E600BF2DE9F04F97B0044624
:10158800894600AF90F802A0D7F880B03B62CBF351
:10159800C003FA62BB6141B9457800780AEB800064
:1015A80020444D4517D8A0EB0409E378FB61BAF154
:1015B800000F02D01BF0010F16D1FB6953BBFB6A69
:1015C8001BB13A6A4946204698474D4628465C373B
:1015D800BD46BDE8F08F461C09F101093046FFF70A
:1015E80051F901303044DCE72378626899007A6267
:1015F800FA6A796104EB8301002A40F004814D46C0
:101608000E4601EB0A094FF000084E4550D101EB98
:101618000A0610E01BF0020FD1D023789A0004EBE1
:1016280083017A6162687A62FA6A002A7BD14D4640
:1016380001EB0A0690461BF0050F0CBF022301239D
:10164800FB62FB6906EB430A0BF00203BB625645DB
:10165800BCD016F8021B16F8013C54F823909B4B9B
:10166800994502D39A4B99453AD3BB69002B44D08C
:10167800786A12F098F800283FD09648036813F06B
:10168800060F13D0E9468AB06A46934B53617B6ACA
:10169800C2E906314FF400731384904B42F8103FAF
:1016A80000234FF4125100F07FFFCD46023DCEE7F4
:1016B80016F8013BF96254F82300FFF7E3F8D7F86E
:1016C80084300130F96A4BB1D7F8883098453EBF6D
:1016D800D7F8843023F8180008F10108054494E786
:1016E800BB6923B1786A12F05EF80028C5D11BF0F7
:1016F800010F05D1FB6AED1AA9E7BB6A002BA6D03A
:101708004846FFF7BFF8D7F8843053B1D7F8883088
:1017180098453FBF431CD7F8842022F8183008F1B9
:101728000108054493E7BAF1000F72D01BF00406D4
:1017380072D0D046002607F1480052463B61B96294
:1017480019F009FBB96A3B6901EB0A02F969BA6247
:10175800FA695200FA60BA6A02EB41023A610BF088
:101768000202BA603A69B96A8A4257D11BF0020F7D
:1017780062780CBF4FEA580100217A621BF0010F12
:101788003244D2B240F09F801BF0040F14BF404691
:101798000020BB616270A0702046E1703A6A7969E6
:1017A800FB6A9847051EFFF611AFBB6941463A6AC6
:1017B80007F1480023707B6A84F802A06370FB6914
:1017C800E370FB6A9847B0F10008C0F2BB807B6900
:1017D800A9EB0A013A6AC91AFB68C91AD7E90A03C8
:1017E80098470028C0F2B080A8444FF0000B07F1DA
:1017F800380A08EB0005B34572D300213A6AFB6A40
:1018080008469847E2E656464FF0000807F13800C8
:1018180093E75646D04697E7B04695E7BA6A12F876
:10182800021B12F8015CBA6254F82500274A90425C
:1018380002D3274A90421ED3BA6932B1786A7B60D4
:1018480011F0B1FF7B6800288CD1BA6802BB08F19F
:10185800280207F1300C08F1010008F1020894444D
:1018680007F158025FFA88F852FA80F00CF8101C59
:1018780000F8105C76E7BA693AB1786A7B6011F0D3
:1018880092FF7B6800287FF46DAF1BF0010F09D031
:1018980006F1280207F13000711C161806F8205CC2
:1018A800CEB25FE71BF0040F3FF45CAF08F12802EB
:1018B80007F1300008F1010102EB000808F8105C9C
:1018C8005FFA81F84EE7002063E700BF54AF0108D4
:1018D80090FA0108480B002431CC010804000001EB
:1018E8001BF80A3054F8239087F83730D7F884303B
:1018F8002BB3D7F888309B4521D2D7F8843033F8FA
:101908001B803A6A012107F13700FB6A98470028D3
:101918001ADB0544B8F1000F06D14846FEF7B2FFBE
:1019280000F101081FFA88F83A6A41464846FB6AFE
:101938009847002808DB05440BF1010B5BE74FF0E3
:101948000008DEE7454641E605463FE6214B70B50F
:1019580082689A4215DD0133D0E9001692FBF3F351
:1019680001294FEAE37476F1000520DAC91844EB3F
:101978000604C0E90014184901FB03238360012011
:1019880070BD002AFBDAB2F1004F1BBF9B1A134946
:101998000323B3FBF1F3D0E90041DE1700290FDA86
:1019A80001F100459C42B5410ADA0020E8E7CD4341
:1019B8009D426FF00045A5EB0605A541D6DAF4E790
:1019C800E41A61EB0601C0E90041044901FB032266
:1019D8008260D4E7FFC99A3B003665C400CA9A3BC7
:1019E80030B50446EFF31185102383F31288BFF353
:1019F8006F8F044B0FCB84E80F0085F31188BFF37A
:101A08006F8F30BD280F002401281FB50C4605D064
:101A180004281DD06FF0150004B010BD18F086FF23
:101A280042F210720023FEF701FF104B5A43C4E93B
:101A38000001A2606846FFF7D3FF6946204611F00F
:101A4800D7FE18B90A4B0FCB84E80F000020E3E754
:101A580018F06CFF42F210720023FEF7E7FE034B0A
:101A68005A43C4E90001A260F0E700BFA086010064
:101A7800C0BB010801287FB50D462DD18A68184BD7
:101A88009A4229D818F052FF42F2107200236C468D
:101A9800FEF7CCFE4042134B61EB41015343CDE9C5
:101AA800000120460293FFF751FF2946204611F016
:101AB8009FFEEFF31186102383F31288BFF36F8F15
:101AC800094D94E80F0085E80F0086F31188BFF3ED
:101AD8006F8F002004B070BD6FF01500FAE700BFEB
:101AE800FFC99A3B6079FEFF280F0024014B18605C
:101AF800704700BFA808002480B505460E46174663
:101B0800984610F0E9FADFF82090034619F014FA25
:101B18000446424649F8003039463046A84754F84A
:101B2800090003F013FE00BF08000000032800B5F9
:101B380008D90A4B092219F0FFF91A504FF0FF3063
:101B48005DF804FB3023BFF35B8F5843044B1B58ED
:101B5800BFF35B8F002BECD00020F1E70C000000F6
:101B6800B41E002430231149434308330B4430B5D5
:101B7800BFF35B8F1A68BFF35B8FB2B1541EBFF31C
:101B88005B8F53E8005F954204D143E8004CBCF1F9
:101B9800000FF6D1BFF35B8FEAD1012A05D13023BC
:101BA800584300230A180B50536030BDAC1E002464
:101BB80038B504461546FFF7B9FF00280DDB30237A
:101BC800074A6343D0184068086015B10C331344C2
:101BD8002B6030235C43105938BD0020FCE700BF60
:101BE800AC1E00244FF0FF334FF0FF321C4870B595
:101BF80011F04CFE00251B4BBFF35B8F1A68BFF337
:101C08005B8F7AB101353033042DF5D1164B17228D
:101C18004FF0FF3519F090F91A50114811F038FEBD
:101C2800284670BD3024BFF35B8F6C4353E8000F28
:101C3800013043E800010029F8D10C4EBFF35B8F57
:101C4800331932515A609A6204F10C00304418F08A
:101C5800E6FA04F12000304418F0CDFCDDE700BFBF
:101C6800540C0024B41E00240C000000AC1E0024F8
:101C78002DE9F041302416460F4A444310191151FA
:101C88004660C362B6B1F368A3B10C4F0C3419F0C7
:101C980053F9054650F807801319304640F20512EB
:101CA80011F0E5FDB8F15F0F04D0EB595F2B08BFC9
:101CB80045F80780BDE8F081AC1E00240C00000048
:101CC800F8B50546FFF732FF002824DB3024134F10
:101CD8004FF0FF324FF0FF336C4304F10C063E44E3
:101CE800304611F0D3FD3A1953689B688BB1D26A1C
:101CF800385912F4404F0AD02946984704463046CE
:101D080011F0C6FD2846FFF72DFF2046F8BD98477D
:101D1800F4E71C46F3E74FF0FF34F6E7AC1E002467
:101D28002DE9F84340F26C73446905690646E117EA
:101D3800E41805F10105C76841F10001022D07F11A
:101D4800FF378CBF00230123E41A61F10001002949
:101D58004EDA6FF4C7704FF4C8720023201861F18F
:101D68000001FEF713FD254B4FF03C0E022D03FB3F
:101D7800004402468CBF6FF002000920D6E90083B8
:101D8800B66805444FEAE37C994699206346454383
:101D98000520C6FB0E93A9FB0EC602350EFB036693
:101DA800A30840F26D1E1CEB080C0EFB043346EB37
:101DB800E8763B446427B4FBF7F4B5FBF0F51B1B4E
:101DC8000F4C2B44A2FB042004FB010198180D4A78
:101DD80041F1000380180C4A63F10003A0FB0201E3
:101DE80002FB031110EB0C0041EB0601BDE8F88380
:101DF8004FF4C87200232046B3E700BF70FEFFFF10
:101E0800B13A02009405F5FF8051010010B5FFF7C3
:101E180087FF002402460B46034919F08DF8445009
:101E28001046194610BD00BF0C000000054B0020ED
:101E38005A6822F002025A605A6822F001025A6077
:101E4800704700BF0010005C08B503F0EDFD03F01B
:101E5800BDFD0C4B0C4A1A600C4AD36823F00703EB
:101E680043F00203D3600A4B1A6841F20303B3EB51
:101E7800124F06D1074AD2F8083143F00103C2F8DD
:101E8800083108BDA40A00240090D0030048025875
:101E98000010005C008000512DE9F0470446074619
:101EA8004FF00109DFF8508014B93846BDE8F087D3
:101EB80094FAA4F5B5FA85F509FA05F32E0108EBAD
:101EC80005156FEA030A24EA03042B7B002BEBD0E9
:101ED80058F806301B694BB946440422284607EADD
:101EE8000A077368196812F01DF8DDE72846984755
:101EF8000028D9D1F0E700BF34BA010830B5002274
:101F080089B00F490F4818F059FD0022002300241A
:101F18000D4D0E4928460094CDE906230E234FF4B3
:101F28004072CDE90334CDE90144094B0FF078FD47
:101F3800084928460FF0A2FC204609B030BD00BF72
:101F4800611F000808140024380F0024C02D002445
:101F5800A92200081FCD010801480FF0F7B900BFFA
:101F6800100D00242DE9F047804620480F4611F057
:101F7800A9FF0646002832D000252846BDE8F0878C
:101F8800237B83B12368DB680BB1204698476368DD
:101F980083F8069023681B69CBB96368042220463E
:101FA800196811F0BFFF013610345445E8D3B8F171
:101FB800000FE2D0002DDFD02846FFF76DFF054661
:101FC800002FF7D00021642018F0E4FBF2E7204648
:101FD80098470028E1D009FA06F31D43E3E7044CCB
:101FE8000546DFF810A04FF00109DEE77C1F00244A
:101FF80034BA010844BA010808B5034608462BB1AB
:10200800044A136000F072FD002008BD6FF015004F
:10201800FBE700BFAC08002410B5044C237813B9C3
:1020280003480FF093F90123237010BDD02A002430
:10203800100D002410B504460B4811F043FF5CB1A5
:102048000A4BBFF35B8F53E8001F013943E80012C6
:10205800002AF8D1BFF35B8F054818F0BBFC054890
:10206800BDE810400FF072B9741F0024781F0024D7
:1020780008140024100D00240020064BBFF35B8FCA
:10208800014653E8000F43E80012002AF9D1BFF3D4
:102098005B8F7047741F002470B5FFF7EDFF084C85
:1020A8000546084EB44200D370BD63685B792BB116
:1020B80023685B6813B12946204698471034F1E736
:1020C80034BA010844BA010810B5044C0449204642
:1020D80011F0E5FC034B1C6010BD00BF040B00248D
:1020E80090BC01086C1F002400230E4A4FF47A713B
:1020F8000D4810B513700D4A13600D4A1360FFF7B1
:102108007BFFFFF7E1FF00F079F90A4B0A4918460F
:102118008B4200D310BD1A1A5C68103312110132B9
:102128002271F5E7D12A0024E73E0108741F002434
:10213800781F002434BA010844BA01080146002275
:102148000023014811F0CCBC040B0024014811F015
:1021580065BD00BF040B0024024B0146186811F04E
:10216800B1BD00BF6C1F0024014811F0E6BD00BFDF
:10217800040B0024334B2DE9F041187800285FD078
:10218800FFF7E4FF0446002856D12F4B2F4C1B685D
:10219800002B12DD18F0CAFB0A220023FEF746FBCB
:1021A800D4E90032C01A40F2E93361EB02019842E7
:1021B80071F1000101D3FFF76FFFD4E9003213F585
:1021C8007A7342F10002C4E90032BDE8F041FFF73A
:1021D800CBBF6B685B793BB121784B0717D52B6870
:1021E800214628461B68984710354545F1D32046B7
:1021F800FFF7B2FF164BBFF35B8F53E8001F01399F
:1022080043E80012002AF8D1BFF35B8FBDE72688A8
:102218002046C1F3C20700F0A7FAC6F382160246A9
:10222800002EDCD00028DADB01233946284600F0EE
:1022380095F9B042D8D3D2E7064DDFF81C80D4E731
:10224800BDE8F081D02A0024741F00240014002463
:10225800781F002434BA010844BA010870B50D4D3E
:10226800297861B90C4C01200C4EFFF77BFEB44273
:1022780006D3FFF77FFF0028FBD101232B7070BD29
:1022880063685B791BB1236820469B6898471034C4
:10229800EDE700BFD12A002434BA010844BA010886
:1022A80000212DE9F0470846FFF75CFE044658B3C5
:1022B8004FF4FA784FF000091C4B18F03DFE1C4A09
:1022C8001B58136033B11B4B1B68092B02DD1A48DE
:1022D8000FF03CF80025194FDFF85CA044B1204608
:1022E800FFF7DAFD044618B94FF0FF384FF0FF3911
:1022F800FFF740FF064628B9B5B942464B46504657
:102308000FF060F83546E9E74FF0FF384FF0FF3936
:10231800D2E72B689B691BB10022284611469847D3
:102328001035BD42F5D3E8E7054DFAE7080000008F
:10233800701F0024781F0024100D002444BA0108DF
:1023480034BA010813B5184811F0BCFD174B1B78B7
:1023580073B1EFF31184102383F31288BFF36F8FE7
:10236800FFF708FF84F31188BFF36F8F02B010BD29
:102378000F4B1B68002BF9D050B9002200230D48E1
:10238800CDE9002342F21072002310F04FFAEDE776
:102398000928EBD1074818F01DFB074802B0BDE833
:1023A80010400EF0D3BF00BF781F0024D12A0024AC
:1023B800701F002408140024100D0024064B10B5CB
:1023C80004461B6898472146A060044811F007FCA2
:1023D800BDE81040FFF7B6BFAC080024040B00248A
:1023E800044A054B9B1AB1EBD30F34BF52F83100A6
:1023F8000020704714B9010834BA01080B480021BD
:102408000B4B1B1A043030B5DB080A4C994200D13B
:1024180030BD10F831200131256802F0070225F09F
:1024280007052A4344F8042BF0E700BF14B9010854
:1024380034BA0108480B0024F8B50B4F06460B4D7B
:102448000024ED1BED08AC4203D14FF0FF342046C9
:10245800F8BD57F8340020B13146FEF701FA0028DC
:10246800F5D00134EFE700BF14B9010834BA010808
:1024780000282DE9F047884615461F461DDADFF883
:1024880098904FF0000A254E5446A6EB09063609E7
:10249800B24509F1100902D12046BDE8F08759F884
:1024A8000C0C3B462A46414600790AF1010AFFF71F
:1024B800DFFF844238BF0446EAE7194B194AD21AAB
:1024C800B5EBD20F25D203EBC5031C79BC4228BF5C
:1024D8003C46C0B20722144E002100EB400056F8DB
:1024E8002530824023EA020304F0070282401343A6
:1024F800032223FA02F0033200F00700814238BFBA
:1025080001461E2AF5D123F007030B4346F8253070
:10251800C2E70024DDE700BF34BA010844BA010865
:1025280014B9010834BA0108480B0024F8B5094D5C
:102538000646094B0F460024ED1AED08AC4200D3BD
:10254800F8BD22B201343B4600213046A4B211F056
:10255800E1FCF3E734BA010814B9010870B1416825
:10256800097973B1002A17DBCBB20C4903EB43039B
:1025780051F82200D84000F0070070474FF0FF31B3
:10258800EFE707490748401AB2EBD00F3ABF01EB13
:10259800C20108791846704704207047480B002488
:1025A80014B9010834BA01082DE9F04F8FB0C1F30E
:1025B8004A280D46914604AF0C0DB8607B60B8F10F
:1025C800000F67D0002607F114034FF0040B4FF0FB
:1025D8000A0AC7F80C8032467E624846C7E9076691
:1025E800019307F11C03CDF808B0CDF800A0F968F5
:1025F800FEF7C2FFB0F5006F034620D32A480368F0
:1026080013F0060F17D06C468AB0D9F8041004AB43
:10261800264D1A46C3E9055140F2FF71D9614FF4BE
:1026280000711984224B42F8103F4FF4125133467F
:10263800FFF7BAFFA5462C37BD46BDE8F08FC0F3BB
:102648000A0804F117003B60184468F3532520F08A
:1026580007008008FFF772FD044690B13B6800F15F
:102668001001144A4846F961C7E9083607F114030E
:10267800CDF808B0CDE900A307F11C03F968FEF70F
:102688007BFF68F353257B68B96820462A4611F01A
:102698007DFCD0E704F1170020F007008008FFF761
:1026A8004DFD0446EDE700BF580B002434CD01086A
:1026B80004000001673F01082DE9F04F87B0044688
:1026C800934698460391DDE91279DDE9105ADFB1A6
:1026D8003B46524610210020CDF80090CDF81490CA
:1026E800FEF778FDB0F5006F06460ED31C48036868
:1026F80013F0060F30D040F2FF731A4A022107B0D8
:10270800BDE8F04F11F09BBC3E4604F0070405F10C
:1027180017000BF0070BE400304444EA8B1420F058
:10272800070044EA4624800844EA0554FFF706FDFA
:10273800054640B13FB13B46524631461030CDF8D0
:102748000090FEF747FD434622460399284607B006
:10275800BDE8F04F11F01ABC07B0BDE8F08F00BF1C
:10276800580B002473CD0108406820B1034BC01AF0
:1027780040F38F0070474FF0FF307047480B00243C
:102788000EB403B503AB0146054853F8042B019377
:1027980003F004FB02B05DF804EB03B0704700BF20
:1027A800A9400108CA0605D48B064CBF0249034953
:1027B800FFF7E6BF704700BF90D10108ABCD010815
:1027C8002DE9F04F89B09B4604460D46149B904670
:1027D8009DF84CA00693159B179E0593169B049392
:1027E800BAF1000F00F09D8006F4807306F002092C
:1027F800079311F08DFB024600283ED091492046F0
:10280800FFF7BEFF0746B9F1000F08D016F0440FD6
:1028180035D12A468C492046FFF7B2FF074406F017
:10282800010353B1894B2046894953F82A20894B23
:10283800002A08BF1A46FFF7A3FF06F48073002B8F
:1028480049D006F00803002B63D1B8F1000F66D019
:10285800424681492046FFF793FF0546069B3D44C3
:10286800002B6DD1049B002B73D1F30700F1E4809A
:1028780031462046FFF796FFD8E00746C3E7774B77
:1028880018680028CAD0764B4FF47A794FF03C0C80
:102898001B68B5FBF3F5B5FBF0F100FB11554FF4E0
:1028A800616309FB05F5B1FBF3F2B5FBF0FE03FB31
:1028B800121100FB1E55B1FBFCF309FB05F50CFBDF
:1028C8001311B5FBF0F5009120466649CDE901E505
:1028D800FFF756FFA2E706F00803EBB1624B20466C
:1028E800624953F82A20FFF74BFF0546B8F1000F5D
:1028F80005D0424658492046FFF742FF0544BBF140
:10290800000FABD05A465A492046FFF739FF054415
:10291800A4E74FF0000BE1E706F00805E6E74546B7
:102928009CE7BBF1010F069B06D1002B64D1049BE9
:10293800002B7BD000250CE0002BF8D04D485CE044
:102948004D48069B22464D4910F0FCFE049B002B87
:1029580068D0DFF82C81DFF82C91049F4FF0000B32
:1029680031462046102F28BF1027FFF71BFF5D4573
:1029780045DC059B4FF0010B494620461A78FFF7C6
:10298800FFFE1BF0070F03D141462046FFF7F8FE74
:102998005F453BD9059B4946204613F80B20FFF7B6
:1029A800EFFE0BF1010BBBF1100FEAD14FF0000B5A
:1029B80035492046FFF7E4FE5A46059B20469A5CB7
:1029C800A2F120015F29314928BF2E22FFF7D8FE46
:1029D8000BF1010BBBF1100F1DD01BF0070F03D13A
:1029E80041462046FFF7CCFE5F455A46E5D84146AA
:1029F8002046FFF7C5FEEBE71F485546A1E74146CD
:102A080020460BF1010BFFF7BBFEB0E7204920463B
:102A1800FFF7B6FEC5E7059B3B440593049BDB1B0C
:102A280004939AD1BAF1000F7FF41FAF204609B082
:102A3800BDE8F04F11F027BB064A20460449FFF7CE
:102A48009FFE15E78ADB0108B3CD0108A4BC010885
:102A580041D40108AECD0108D8CD0108841F002457
:102A6800801F0024BCCD0108B8BC0108DCCD0108DA
:102A7800E2CD0108DF400108A9400108A55D000872
:102A8800EFCD0108E7CD0108F1CD01086EDB0108A3
:102A9800EDCD010842F20F73114A8B4273B504461B
:102AA80028BF0B4605680521684610F0A1F8636841
:102AB80006460B2228465B680A4911F0D6FA636875
:102AC8003246694628465B6811F0CFFA63681B22D4
:102AD80005495B68284611F0C8FA02B070BD00BF0E
:102AE800BCEE01080FCE0108F3CD01080021012337
:102AF800064A904206D8064A01B901231360054BDD
:102B080018607047400801215B00F2E740420F005F
:102B1800801F0024841F0024014B0360012070479C
:102B2800CCBC010810B504460DF0FAFA0349024678
:102B3800204611F0E7FC002010BD00BF62CE01085E
:102B480037B51346002205460A21019201AA5868A2
:102B580001F0AEFD019C4CB920EAE0700A2180FB2F
:102B6800010117F017FE204603B030BD2246034985
:102B7800284611F0E3FC019CF5E700BF8ECE010862
:102B8800034A044908B511F0BDFC002008BD00BF88
:102B98007ECF010885CF0108F7B517460023054603
:102BA80001AA0A21B868019301F082FD1749C6B24B
:102BB800284611F0B5FC019C44B122461449284628
:102BC80011F0BCFC019C204603B0F0BD042E09D9CD
:102BD800324610492846012411F0B0FC284611F06D
:102BE800E2FCF0E77868FFF727FC021E07DA7A684C
:102BF800284609496FF0150411F0A0FCE3E73346B5
:102C080012B22146204611F085F9DCE7B0CF010861
:102C180016D001083DD0010854D00108002307B59B
:102C28000090694604488DF804300FF0B7FB9DF812
:102C3800040003B05DF804FB6741010810B50446C1
:102C48000DF050FA07490246204611F05BFC204679
:102C5800054911F057FC214604480FF0B9FB002044
:102C680010BD00BFB3D00108D2D00108792C0008EC
:102C780070B58EB004460D46D0F8AC6017F0C5FCB0
:102C8800224A034618F058F91058214A2149002BC6
:102C980018BF1A46234600921F4A844218BF0A46A4
:102CA80028461E4911F02EFC28461D49D4E90A235E
:102CB800CDE9002394F90E30227B11F023FC06A9FC
:102CC800202220460EF0EAFD636F02461549284689
:102CD80011F018FC05A9204617F0A5FC024628B1FA
:102CE8001149284611F00EFC0EB070BD059B6422F8
:102CF8002846F11A4A4300910C49B2FBF6F2CDE995
:102D08000162324611F0FEFBEEE700BF080000004A
:102D1800DCD00108EFCD010854E50108DFD0010837
:102D2800EBD0010817D101082ED101085BD10108A9
:102D3800F0B591B0002504461C2208AF294609A821
:102D4800144E18F030F81A222021384618F02BF8C3
:102D5800214611480FF03CFB07AA4FF400613046AA
:102D680017F055FC079A64232046C2F500610097C6
:102D78004B43DB0A05934FF40063CDE90313CDE918
:102D8800013206492B46A6F1400211F0BBFB28464A
:102D980011B0F0BD80470024A92D0008ACD101086E
:102DA80070B5044688B00D46D0F8AC6007A917F096
:102DB8003AFC024628B10F49284611F0A3FB08B097
:102DC80070BD204617F021FC079B64220096F11A7B
:102DD8004A43B2FBF6F2CDE90131074B0749002817
:102DE80018BF03462846CDE90362224611F08AFB44
:102DF800E5E700BF2ED10108DCD00108F5D10108B4
:102E080038B5134605461022002158680FF090FF88
:102E18000446FFF703FF38B922460E49284611F049
:102E28008DFB6FF0150038BD0B4B18F085F81B585B
:102E38009C4204D10949284611F080FBF1E720465D
:102E48000EF006FF28462246054911F05BFB0020DC
:102E5800E9E700BF59D201080800000074D2010850
:102E68009CD2010838B5134605461022002158683F
:102E78000FF05EFF0446FFF7D1FE38B922460E492F
:102E8800284611F05BFB6FF0150038BD0B4B18F0AE
:102E980053F81B589C4204D10949284611F04EFBAF
:102EA800F1E720460EF0F2FF28462246054911F0C8
:102EB80029FB0020E9E700BF59D2010808000000FB
:102EC800DBD2010801D3010838B5134605461022A4
:102ED800002158680FF02CFF0446FFF79FFE38B911
:102EE80022460E49284611F029FB6FF0150038BD1F
:102EF8000B4B18F021F81B589C4204D1094928466D
:102F080011F01CFBF1E7204602F020FC284622467F
:102F1800054911F0F7FA0020E9E700BF59D2010886
:102F2800080000003CD3010861D3010810B50C4625
:102F3800002111F0C6FD00B100680023024A20609C
:102F4800E360C4E9012310BD81D4010810B50C4623
:102F5800002111F0BAFD00B100680023024A206088
:102F6800E360C4E9012310BD81D4010870B50646A9
:102F78005068154611F0ADFD044640B96FF01204D3
:102F88006A680F49304611F0D9FA204670BD17F02B
:102F980072F830B16A680B493046002411F0A4FA7F
:102FA800F3E7204617F095F8044630B103466A68FF
:102FB8000549304611F0C2FAE7E76A680349EBE7CA
:102FC80099D30108AED30108D0D30108FDD3010875
:102FD8002DE9F04F8FB004460F46904601A80DF03A
:102FE800B3FD2422019B082102FB003B2B4A20460B
:102FF80011F06DFA019D5D4503D300200FB0BDE8C7
:10300800F08F2E680EB1337833B902AE2B46244ABE
:10301800302102A80FF0ECFD022F07D1D8F80410D8
:10302800304617F013FF08B92435E4E733461D4A44
:103038000821204611F04BFA284617F01CF81A4AC6
:103048001A4B0821002808BF1346194A204611F0D8
:103058003EFA2B6A002BE7D01E68002EE4D03368B6
:10306800002BE1D0B2464FF00009124A0821204651
:1030780011F02DFA3368104A4B4505D80F4A08213C
:10308800204611F024FACFE75AF8043F08212046D9
:1030980009F1010911F01BFAECE700BF30D401086F
:1030A8003AD401083FD4010827D4010821D40108E3
:1030B800A7D3010844D4010840D4010890D10108DD
:1030C8001FB50C68D1E9043203944C68013302F24D
:1030D8006C7202948C680194C9680091024911F0DD
:1030E80011FA04B010BD00BFCBD40108F7B51378AE
:1030F80006460F4615463A2B14D1541C23783A2B12
:1031080028D101340A2201A920460FF09BFD019A1B
:1031180003463860A24217D01078A8B93C2B15D9BD
:1031280015490EE00A2201A928460FF08BFD019CE3
:10313800B860AC4208D023783A2B05D1172807D9B4
:103148000E49304611F0FAF96FF0150003B0F0BDE2
:103158000134D3E70A2201A920460FF073FD019B31
:103168007860A342F0D01A783A2AEDD13B2801D9E9
:103178000349E6E75C1CC5E70AD50108ECD4010859
:10318800FAD401082DE9F04190B00D46044601201B
:1031980002A91746FEF738FC07A902A80FF07AFC27
:1031A800032D55D17D680A2201A928460FF04AFD52
:1031B800019E8046B54215D032782D2A12D10136AB
:1031C8000A2201A930460FF03DFD019B9E4209D01D
:1031D8001A782D2A06D1451E0B2D0CD928492046D0
:1031E80011F0ACF9204611F0DEF96FF0150528460C
:1031F80010B0BDE8F0815E1C0A2201A930460FF02C
:1032080021FD019B9E42EDD01B78002BEAD1431E85
:103218001E2B01D91B49E2E7A8F26C73BA680A9021
:10322800CDE90B5307A92046FFF760FF0028D9D145
:1032380007A8FEF7EBFDB1F1FF3F08BFB0F1FF3F74
:10324800CDE9020108D11049204611F077F9CCE701
:10325800022DC7D17A68E5E700230493012002A96B
:10326800FEF708FC054628B102460849204611F039
:1032780065F9BAE707A92046FFF722FFB7E700BFBD
:103288001AD5010829D5010836D501085FD50108E6
:103298002DE9F0411446884607461022002160684F
:1032A8000FF046FDB8F1020F064607D82023254A3D
:1032B8000821384611F00BF9336816E00A2200217C
:1032C800A0680FF035FD1F4AC5B2082138462B46C5
:1032D80011F0FDF8B8F1030F1AD1102D0CD0202DE4
:1032E800EAD0082D0BD13378DBB2174A08213846CB
:1032F80011F0EDF8002009E033889BB2F5E7384675
:10330800124A082111F0E3F86FF01500BDE8F081CA
:1033180010220021E0680FF00BFD0D4A0346044619
:103328000821384611F0D3F8102D06D0202D07D0EB
:10333800082DE4D1E4B23470DCE7A4B23480D9E7D4
:103348003460D7E7A4D50108CFD50108B9D501085D
:10335800E0D501082DE9F04F002387B04FF0FF3585
:10336800914601930122504B20262C46DFF83CA1C0
:10337800074688461A6002F053FD494652464046C1
:1033880002F072FD411C06D16A1C41D148493846F9
:1033980011F0D4F817E073281AD0772828D06128BC
:1033A80011D1DFF810B101AA1021DBF8000001F0FB
:1033B8007FF9019B0546002BDFD0DBF800203E4952
:1033C800384611F0BBF86FF0150007B0BDE8F08F74
:1033D800DFF8E0B001AA0021DBF8000001F068F98D
:1033E800019B0446002BC8D0DBF800203349E7E7EF
:1033F800DFF8C0B001AA0021DBF8000001F058F99D
:10340800019B0646002BB8D0DBF800202C49D7E7F3
:10341800631C01D12B49BAE75FFA86F8C6F3C406E4
:10342800002C3FD002AB2946A6EB050C1A460CE04F
:10343800B8F1100F1DD0B8F1200F20D0B8F1080F47
:103448002AD10878187031443344A64203D80CEBCB
:1034580001001028ECD9102CA1462946384628BF6F
:103468004FF0100910354B46A4EB090401F006F89B
:10347800D6E7088880B21870000A5870E3E7086831
:103488004FEA102E187083F801E04FEA104E000E34
:1034980083F802E0D870D6E70B4A0821384611F0C5
:1034A80016F890E7204690E70C0900242ED601086C
:1034B80035D60108C0220024F4D5010807D6010832
:1034C8001AD6010852D60108B9D5010870B50F4EB1
:1034D80004460D46337871B123B10D49BDE87040FB
:1034E80011F02CB8012333700A49204611F00AF86C
:1034F8000123337004E083F001033370002BF3D110
:1035080029462046BDE8704011F067B8D22A002449
:103518006CD60108A7D601082DE9F04105460C46EE
:103528008F18DFF8EC803B4EA74201D1BDE8F0814F
:1035380098F8002014F8013B182A22D1112B20D129
:10354800354C002635492846226888F8006010F076
:10355800D9FF28463146FFF7B9FF314B18780028C4
:10356800E4D1304A23681168042B2EDC08B12360AB
:10357800116013F003012FD1126813681BBA13608E
:10358800D4E7A3F1300288F80030092A04D923F0DF
:103598002002413A052A04D83168234A535401319C
:1035A80031603368022BBFD1102200211E480FF072
:1035B800BFFB1E4A136803F8010B1360164A136811
:1035C8000133136000233360AEE70868043B00BA98
:1035D80041F8040B0120C7E75B4203F0030358BF1F
:1035E8005942022904D1126813885BBA9BB2C6E714
:1035F80003299BD1106802681104C2F3074302F43F
:103608007F4201F47F010B43134303608EE700BF41
:10361800D32A0024881F00248C1F0024D1D6010837
:10362800D42A0024901F0024D52A0024941F0024A3
:103638002DE9F84F00230C462A490646DFF8A880F2
:1036480015460B60DFF8A4902949DFF8A8B088F880
:1036580000300B60012C2F4655F804AF1ED902220A
:103668004946504617F0C4FB80B99AF80220003A40
:1036780018BF0122924420490222504617F0B8FB95
:1036880030B9012388F80030013CE3E70022F1E774
:1036980049465046FDF7E4F8A8B90437002278688F
:1036A80011460FF045FB0022144B1146186078684C
:1036B8000FF03EFB124B134918603046FFF706FF28
:1036C8000020BDE8F88F9AF800202D2AE6D19AF854
:1036D8000120002AE2D052465946304610F012FF27
:1036E800D2E700BF881F0024D42A0024EBD60108A3
:1036F8008C1F0024F1D60108EED60108941F00247F
:10370800901F00242135000807B50A4816F0B3FCBD
:1037180060B10423084A0749009301231268074847
:1037280000F012FF002003B05DF804FB6FF01200F8
:10373800F9E700BF8CB20108F8BD010844BA0108D6
:1037480010B54468A360C4E90012426840211346DA
:1037580053F8404B516302F1380153620023C2E928
:10376800041308211363C2F8B8301162C2E90A339E
:10377800C2E90633A36823B19B6C13B10449204600
:103788009847A3689B6A0BB120469847002010BD54
:103798009D3700082DE9F34705460C4683685B6CA6
:1037A80003B19847AB685B6B73BB4FF0000904F13A
:1037B800240704F12808218E3846238D626B5B1A92
:1037C80041469BB2D31A934228BF134601AA10F070
:1037D800CDFA8246002844D0AB6801999B69002B3A
:1037E80033D0024628469847064688B332464146B3
:1037F80038464FF0010910F0EFFA5645DBD0D4E90E
:1038080001310020984703E0284698470028CCD18A
:10381800AB685B6A002B37D1628B04F11007E38A2F
:1038280004F11A0838469B1A226A41469BB2934211
:1038380028BF134601AA10F099FA064658BB284635
:1038480010F0B5FCC4F8B86031E06FF05706CDE76A
:1038580002464146384610F0BFFAB9F1000FD7D0FA
:10386800CDE71748036813F0060F03D0154A022165
:1038780010F0DCFBAB689B69002BEED001220DF148
:10388800030128469847E8E7284698470028C3D107
:1038980002B0BDE8F087AB6801995B6963B1024685
:1038A8002846984702464146384610F095FA0120C6
:1038B800D4E901319847EBE76FF05702F3E700BF0F
:1038C800C80B002458D8010810B58168044618317F
:1038D80001F080F9A1682046024A1831BDE810407D
:1038E80001F010B99AD8010838B583680446D3F8AE
:1038F8007832DB071DD4C06911F030FC60680368BA
:103908005B689847054620B9E06811F0F4FDA368A4
:103918001D75A3685B6C13B1294620469847A368B8
:10392800002217F009FBC3F8A022034B185801F036
:103938000DFF6FF00F05ECE708000000014910F0DB
:10394800BCBC00BF90D101082DE9F04FA7B00446D8
:103958005422002111A817F026FA00232046CDE9A9
:103968000533A3685633029311F0CEF9204611F0BF
:1039780013F910B96069FFF7E1FFA068142200216C
:10398800002618304FF0FF3817F00DFA204611F0D6
:103998005EF8A168E068B246B1F8502011AF563120
:1039A800B3463546B14611F0B2FD204611F041FE4E
:1039B8000396DDE90532012A6CD0132B6DD8B8F1D6
:1039C800000F2BD1BBF1000F0AD0204611F052FE98
:1039D800A268142311A956320DEB030010F0B6FEAD
:1039E800B9F1000F0CD099F81130FE2B08D1059BC6
:1039F80026AA02EB830252F8542C0AB1013305932C
:103A0800A068059D436A002B40F0B580C6B1C36924
:103A18009E422BD000F118050D9622E00223029A4F
:103A2800394606A810F092FE7A6806990346029273
:103A380031B101290AD148B1694A204611F012FA78
:103A48006FF00705284627B0BDE8F08F059B002BCF
:103A580032D0386801F0F0F898B166B1A5680D96D3
:103A680018350CAE0FCE0FC533682B6020460125E4
:103A7800FFF72AFFE6E75B4A0121204611F0F2F939
:103A8800DEE7059BC3B13A682946204601F078FA7B
:103A9800022809D1059B132B94D9069B022B91D19F
:103AA800514B0121514AC8E7032805D0059B4FF027
:103AB800010B013305937CE7039B2BB907AA3968EF
:103AC800484610F03AFF0546043708F1FF38A5B319
:103AD800EB68BBF1000F08D0FBB1204611F014F9D8
:103AE800204611F070F8424AC6E7B3B1A368AE4663
:103AF800DDF814A003F1180CBEE80F00ACE80F00C5
:103B0800DEF80030CCF80030AB6833B96B7CFE2BA4
:103B180004BF95F8108008F1FF38D5F804C0BCF14F
:103B2800000F08D0AE460CAEBEE80F000FC6DEF898
:103B3800003033606646A94603E0059B63B1012364
:103B48000393069BB8F1000F02D1022B7FF431AF2B
:103B5800059B013305932CE7A368DB6A13B1DB6887
:103B6800002BECD1234B0121234A20460093119BC3
:103B780011F078F9E3E790F82830A5EB0A05BBB116
:103B880090F829104FF6FF72FF2918BF0A469D4288
:103B980002D313449D420BD983690121174A204659
:103BA80011F060F920466FF01505FFF78DFE49E723
:103BB800012110F0C5FBA06810F0B6FBA36811AA9C
:103BC80029465B6A204602EB8A0298470546A068A8
:103BD80010F0AEFB0021A06810F0B2FB32E700BF86
:103BE800A8D80108BCD801081DD901086FD0010860
:103BF800DAD8010809D9010805DC010841D901080A
:103C0800F7B5044680680D46D0F878325A0705D5CE
:103C1800002110F0A0FBE06811F03FFCE368DB68CE
:103C280073B9002D3BD0A66806F15607384610F048
:103C380051FB002835D0394606F5AB70FCF71AFE63
:103C4800A2680DF106032946E068563211F028FCF7
:103C580058B9A06800F5AB715630FCF70BFEA068A8
:103C6800563010F037FBADF80600204611F045F845
:103C7800A368D3F874329B0603D50B49606910F02A
:103C88001CFB204600F07AFDA268BDF806302046ED
:103C9800A2F85230A268A2F8503010F094FF03B096
:103CA800F0BD86F85601CBE7D0BB010810B502225B
:103CB800836804461A7583689B6CBBB910F0D4FA04
:103CC8008368D3F87832DB040BD50321084B094A03
:103CD80011F0C8F8A0686FF4805100F51E7010F05C
:103CE800DDFA2046BDE8104000F0CEBE10BD00BF92
:103CF8005CD9010841D401082DE9F04F04468068D9
:103D0800B1B0012100F51E7010F0B9FAA3681B7D4F
:103D1800022B20D100230993A36860689E6C036876
:103D28001D6909AB0EB310221BA9A847099B93B1C3
:103D38000121A06810F004FB099A1BA92046B0478E
:103D48000021A06810F0FCFAA3689B6C002BE3D15B
:103D58002046FFF7ABFFA0686FF0010100F51E7069
:103D680031B0BDE8F04F10F099BA01220DF12301EE
:103D7800A847099B002BEED09DF923209DF82330FE
:103D8800002AA068C8DB427D032A00F2F482DFE83B
:103D980012F0040075028C02F2020D2B67D00A2B78
:103DA80043D0B0F87822092B6FF3CA02A0F8782222
:103DB80072D029D8002B00F00381082BA06800F0EE
:103DC800E9810246D2F87412890740F1F980013B73
:103DD800162B00F2F580DFE813F0B702FA01FE01B6
:103DE800F601B1021002F300F300F300F30014022D
:103DF8001802F3002D02F3003202F300F300F3007F
:103E0800F3003402F30049021B2BA06841D07F2B3A
:103E180000F0CC81A3F1200102465E29D2D801210D
:103E280010F099FA9DF82310B8E0D0F87822C2F380
:103E3800C7022AB1D0F87822C2F3C7020A2AC0D131
:103E4800B0F8782263F3CA02A0F87822A568B5F81A
:103E58005010C1B9284610F07EFAE06811F01DFB39
:103E68006069FFF76BFD2046FFF720FF54E7D0F8A5
:103E78007822C2F3C702002AE2D0D0F87822C2F32F
:103E8800C7020D2ADBE72046FFF75EFDC5F8A4024E
:103E9800E9E70123437593E0A068D0F874329B07E3
:103EA80040F18E80012110F056FAA068B0F8503029
:103EB800FF2B00F08580B0F8522000F1560100F584
:103EC800AB70002516F047FFA3681BA90BA8B3F831
:103ED8005220134483F856511423A26802F5AB729A
:103EE80010F034FC0B9914296AD830AB03EB81032A
:103EF80043F8545CA368B3F85220002A52D0134404
:103F080093F85530202B02D0093B042B4AD80029BE
:103F18004BD100250A9530AA0A9B002602EB8303A1
:103F2800B346B04653F854AC3746504610F0D2F971
:103F3800814616AA3946284600F080FB0346002829
:103F480042D1012E68D130AA0A9B02EB830353F8B1
:103F5800540C10F0BFF9A2680646414618322846AC
:103F680000F06CFB0568284610F0B4F9864205D0CD
:103F7800821BA919204692B210F0BBFFA068B0F8C6
:103F88005230034493F85630202B34D0093B042B8D
:103F980031D9D0F87432DF0732D42021204600F01E
:103FA8003BFD0DE00129B4D9013900200CAB1BAA57
:103FB80000930AAB019010F0ECFC05460028AAD14A
:103FC800606910F010FBA7E61B684A465146184680
:103FD800039316F00DFF60B9039B1846FCF752FCDB
:103FE800584538BF5846002E08BFB84601361FFA54
:103FF80080FB01379DE70121204610F018FEDFE71E
:10400800002110F0B2F92021204600F005FD012121
:10401800A06810F0AAF9D3E70490D1D930AB0A9A76
:10402800C14603EB820252F8543C1846039310F041
:1040380051F9049BA2680590A2F840300496A26842
:104048004946284609F10109183200F0F7FA039B9E
:10405800D0F800A04BB1BAF1000F06D0059A194666
:10406800504616F0C5FE0028E9D1A168BAF1000F44
:104078004ED1A1F840A0049B013B0493DFD16069B5
:1040880008F1010AFFF75AFC204600F0FDFC30AAAF
:104098000A9B02EB830353F8540C10F01BF94146BA
:1040A80011AA8146284600F0C9FA0746A068FF22EF
:1040B800396800F5AB7016F0ADFE3B684FF6FF7738
:1040C8000393B84616AA514628460AF1010B00F098
:1040D800B5FA002852D0A1680022036801F25511F0
:1040E80011F801EF985C704503D110B101324245D7
:1040F800F6D1B9F1000F01D04A4507DBBA4206F103
:10410800FF36A8BF3A46012E97B237D0DA46D9E72C
:104118009A48069110F0DEF8069900EB0B074A8FD3
:10412800BFB20791121A504692FBF7F292B206926A
:1041380010F0D0F807993F1A069AB1F84000BFB2BC
:1041480000F1010CA1F840C0B0FBF2F102FB110034
:1041580080B260B9894B0621894A2046CDF800A073
:1041680010F080FE3946204600F0F2FA83E7534605
:10417800844A0621204610F075FEF3E7002F3FF42D
:104188001FAFA7EB09020399204692B2494410F0E9
:10419800B0FE15E7D0F874329E077FF511AF012104
:1041A80010F0D9F8204610F0C5FE09E7D0F87432AF
:1041B8009D077FF505AF012110F0CDF8A368D3F86E
:1041C80074321807EED4204610F095FEF8E6204623
:1041D80010F0A3FDF4E6204610F096FD204610F0FE
:1041E800DBFC10B96069FFF7A9FBA068012110F09A
:1041F800B2F82046FFF75AFDE2E6204610F096FD99
:10420800DEE6204610F09DFDDAE6D2F874329F060D
:1042180003D55D49606910F050F8A368D3F874328B
:104228009E0603D55949606910F047F8204600F00A
:104238002BFCC5E600212046FFF7E2FCC0E6012181
:10424800F9E7204610F059FD204610F00DF801213D
:10425800A06810F080F8A368D3F874329D067FF543
:10426800AFAE4B49606910F028F8A9E6204600F087
:10427800FFFA0121A06810F06EF8A1E65B2B01D1CE
:10428800022307E6D0F87422900706D5622B08D1DE
:104298004FF0FF31204610F0F2FCA36800225A7557
:1042A8008EE6662BF9D10121F4E700224275A26857
:1042B800D2F8741289077FF52FAD313B1B2B3FF6DF
:1042C8007FAE01A151F823F04D430008594300087F
:1042D8006D43000841430008C93F0008C93F000872
:1042E800C93F0008C93F0008C93F0008C93F000886
:1042F800C93F0008C93F0008C93F0008C93F000876
:10430800C93F0008C93F0008474200083D4200086D
:1043180003420008D7410008C93F00084543000888
:10432800C93F000851430008C93F0008C93F0008B9
:10433800C93F00085D43000803235375204610F069
:10434800E3FC3DE603235375204610F0D6FC37E620
:1043580003235375A068D0F8741201F0010181F0AD
:10436800010156E603235375A368D3F874329B07FB
:104378007FF526AE27E700238CE500BFEECD0108C8
:10438800A0D9010841D40108D5BB0108DABB01084E
:10439800D0BB01082DE9F34104468068154600F5B5
:1043A8001E7000293AD04FF480410FF068FFA368CF
:1043B8000021DD64606803689B68984798BB2046C5
:1043C80010F011F878BB4FF0FF364FF0FF37174D5C
:1043D800DFF85C80A06800F51F7000220721CDE996
:1043E800006716F096FCA0680FF0A2FF2A46042189
:1043F80020460FF0DCFF4246012120460FF0D7FF90
:1044080020460C4A02210FF0D2FF606803685B69FE
:1044180003B19847A0680FF087FFDBE76FF480418E
:104428000FF03CFFC3E702B0BDE8F081F1380008A7
:10443800013D0008E942010810B504460A4910F098
:1044480061F80A49204610F05DF82046084910F046
:1044580059F82046074910F055F82046064A002129
:1044680000F050FB002010BDA6D90108E4D90108CE
:1044780043DA010897DA010831DB0108F8B51E466E
:1044880017460A462949044610F03CF83EB3012570
:104498003A782749204610F035F86A0703D12549AC
:1044A800204610F02FF8AE421ED97A5D20462049EA
:1044B80010F028F80135102DEFD11F49204610F0D3
:1044C80021F8B6B901251B49204610F01BF8AE4269
:1044D8002B4610D81749204610F014F815E001258E
:1044E8001649204610F00EF81449204610F00AF834
:1044F800E0E700252B46FA5C20461149A2F120038B
:104508005F2B28BF2E220FF0FDFF0135102D06D09E
:104518006B07DCD1074920460FF0F4FFD7E72046A8
:104528000849BDE8F8400FF0EDBF00BF47DB0108C0
:10453800E7CD0108EFCD0108F1CD0108EDCD010867
:104548006EDB01084EDB01082DE9F0410446806866
:1045580088B08846D0F8A06215461F46002E52D172
:104568004FF42A72314616F01EFCE06811F047F845
:10457800A06800F51F7016F0C0FBA06800F5227057
:10458800012266F38205114615F044FFA369022152
:104598001E60A06800F51E700FF071FEA36850221F
:1045A80020465A871822A3681A8721680FF0D4FF7B
:1045B800A368164A4146C3F87452606803681D68C8
:1045C8002346A8470546D0B9A36801221A75D4E93D
:1045D8000A010022002304950094CDE906230E2346
:1045E8004FF4006203930E9BCDE90173084B0DF065
:1045F80017FAA368C3F8A002616A0DF03FF92846CC
:1046080008B0BDE8F0816FF07705F8E7A34301082B
:104618009D43000810B5044613460A46014606485D
:1046280001F0BCFB23691B7923B12046BDE810408B
:104638000FF0D9BF10BD00BF0746010838B50B46BB
:10464800154648B91449154A521AB3EB920F05D2C8
:1046580051F82350284638BD84680CB90025F9E77D
:104668000F4A94420AD30F4A944207D21846226846
:10467800294690472B68002BECD1EFE70A4A944271
:1046880002D30A4A944205D3246814225343E518F6
:10469800E358F0E70133F8E774BA0108A0BA010853
:1046A800B8BB0108C0BB0108A0BA0108B8BB010823
:1046B800F7B50378044616462D2B05D16FF0150380
:1046C8000020336003B0F0BD00230C4F16F034FC1B
:1046D8000546C3510A46204601A90EF029FBEB59AD
:1046E800222B02D16FF02103EAE7002BE6D1019BD0
:1046F800A342E3D01B78002BE4D0DFE70C000000D6
:104708008368D3F874329B0603D50249406910F0D8
:1047180024BA7047E0BB0108014910F01EBA00BF77
:1047280090D101080A1E0DDC0ED042238168D1F811
:104738007412890608D5002A04494069B8BF524254
:1047480010F00BBA4123F1E7704700BF6ADB01089C
:104758000A1E0DDC0ED044238168D1F87412890634
:1047680008D5002A04494069B8BF524210F0F5B98B
:104778004323F1E7704700BF6ADB01082DE9F047E2
:1047880085680446DFF8649005F15600FCF77AF86E
:10479800002386B295F83C709846A268558FED1BA9
:1047A800B54209DB002E1FDD5633606910491A44F3
:1047B800BDE8F04710F0D1B91D44563349462A44A4
:1047C80092F856A082F85680A26860691A4410F0E0
:1047D800C4F9A3682B4483F856A0A3685B8FDB1B3E
:1047E8000027F61A2B46D8E7BDE8F0876FD00108F6
:1047F80041D4010808290A4617D8836893F83E105F
:10480800914212D083F83E20082A8368D3F8743284
:1048180005D0990609D50549406910F09EB99B064F
:1048280003D50349406910F098B9704771DB010856
:10483800E5BB010838B50D4609780446FFF7DAFFED
:104848006A78072A11D8A36893F83F1091420CD0D0
:1048580083F83F20A368D3F874329B0605D56069B6
:104868000249BDE8384010F078B938BD7ADB010854
:10487800F8B583680446B3F85020002A55D0B3F839
:104888005210002951D0553103F156050B441846F2
:10489800A84206D3014611F80169202E3CD0A8424F
:1048A8003CD286B2471C9DB2AB1B9BB2591CD21A94
:1048B8000144384616F05DFAA268711B2046B2F82A
:1048C800503013FA81F309B2A2F85030A368B3F854
:1048D80050201344002283F8562010F0A8F9A3684A
:1048E800D3F874329A0603D51049606910F035F987
:1048F8003B460F4A0821204610F0B4FA2046FFF73D
:10490800FFFEA368D3F874329B060ED56069094987
:10491800BDE8F84010F021B90846B9E7014611F89A
:104928000169202EBDD00846B9E7F8BDEABB0108E9
:1049380041D40108EEBB01082DE9F84F04460F46A3
:1049480090460AB1FFF7DCFEA668D6F87432B6F8CE
:1049580052505B0724D505F1560030442B4EFBF727
:1049680091FF0546B5B9A368B3F85020A3F85220C3
:10497800A06810F0FFF830B1B8F1000F00D017B1FF
:104988006069FFF7C9FE7942204609B2BDE8F84FD1
:1049980010F04DB931466069013D10F0DEF8E1E7ED
:1049A8003046AA46FBF76EFFB6F85090738F19FA97
:1049B80080F915FA80F0B0FBF3F2B9FBF3F39A42F1
:1049C8001BD0134D4845A368CDDA5A8F461CB0FB5F
:1049D800F2F302FB130313B96069FFF79DFEA368A6
:1049E8000AF1010B20462A4653440821DA4693F877
:1049F800563010F037FA3046E4E75635054A0821B4
:104A08002046731910F02EFAADE700BF54E50108EF
:104A18006EDB010841D4010813B5836804468DF89C
:104A28000710D3F87422D00725D5B3F85210B3F87D
:104A380050208A421FD0481C9DF80720A3F8520036
:104A48000B4483F85620A368D3F87412890710D54D
:104A5800D3F87432606913F0040F0A4918BF2A2288
:104A680010F07BF8204610F097F810B16069FFF756
:104A780053FE02B010BD01220DF10701204610F0CF
:104A8800FEF9F6E76EDB010810B504468368094AAB
:104A9800022110F0E7F9A368D3F874329B0707D511
:104AA8002046FFF76BFE2046BDE8104010F09AB88C
:104AB80010BD00BF41D40108014910F0C4BB00BFBC
:104AC80090D10108F8B50F465168044615461E46B0
:104AD80011B11A4610F0C4FBAB6883B131462046C9
:104AE800FFF736FE20463B46054A082110F0BAF982
:104AF800F21DA9682046BDE8F84010F0B1BBF8BD2A
:104B080083DB01082DE9F04F0F46002189B00446E8
:104B180016460D4603AA384601F10108FFF78EFD37
:104B2800A8B98DB126B132460821204610F09AF96D
:104B38000021DFF89090DFF890B003AA384601F121
:104B4800010AFFF77BFD60B909B0BDE8F08F006886
:104B580010B1FBF797FE80B28542414638BF054643
:104B6800D8E7D0F80080B8F1000F0FD098F80030DF
:104B780063B146684B46154A08212046CDE90058DE
:104B880010F070F926B96069FFF796FF5146D4E72F
:104B98004B465A460821204610F064F9AB1DB2076F
:104BA8009BB209D131680A4A914205D13246414641
:104BB8002046FFF787FFE9E71A463146204610F0FE
:104BC8004FFBE3E7A3DB0108E2CD01088EDB010818
:104BD800C40BD286F7B50F6805460E46EFB13846C6
:104BE800FBF750FE84B2114B0821114A2846009366
:104BF8003B4610F037F9E31C71689BB279B18A071C
:104C08000DD108680B4A904209D10A4628463168F6
:104C180003B0BDE8F040FFF755BF3C46E3E71A464E
:104C2800284603B0BDE8F04010F01ABB9FDB01082E
:104C3800A1D90108C40BD28610B507490446FBF771
:104C48000FFE38B105492046FBF70AFEB0FA80F09E
:104C5800400910BD0120FCE795DB010898DB01083D
:104C680010B583680446D3F874329B0603D5064909
:104C7800406910F065FBA368502200205A8718226B
:104C8800A3681A8710BD00BFF2BB010808B5836985
:104C980002491A680FF036FC002008BDA6DB01089F
:104CA8002DE9F3410E4905460E4C0FF02BFC0E4E34
:104CB8000022DFF83880B44202F1010703D3002054
:104CC80002B0BDE8F081636A92B24146284600937B
:104CD800303454F8283C0FF015FC3A46EBE700BF97
:104CE800B6DB010844BA010874BA0108CEDB010832
:104CF800024908B50FF030FC002008BD91D1010829
:104D080073B5044600250D4EA2680DF10603012176
:104D1800E06802F5AB7210F0C3FBBDF80600A368AB
:104D280040B12A4603F5AB733146204601350FF0F2
:104D3800E9FBE9E783F8560102B070BDDFDB010843
:104D480010B504460FF041FC0349024620460FF017
:104D5800D9FB002010BD00BFE7D60108022907B51E
:104D68000BD153680C4900930C4B12680FF0E6FB0B
:104D78006FF0150003B05DF804FB8368084AD3F8A8
:104D88007432084913F0020F074B18BF1A460FF088
:104D9800B9FB0020EEE700BF02DC0108EDDB0108EB
:104DA800E9DB01080BDC01089DCF010810B5836819
:104DB8000446D3F874329A0603D50749406910F0BF
:104DC800BFFAA368D3F874329B0603D50349606918
:104DD80010F0B6FA002010BDF9BB0108FEBB0108AF
:104DE8000129F0B5044685B00AD053685E4900939E
:104DF8005E4B12680FF0A2FB6FF0150005B0F0BD16
:104E08008368D3F87432990603D55949406910F07C
:104E180097FA6FF0F9012046FFF784FCFA21204643
:104E28000025FFF795FCA0684FF48072294600F52D
:104E3800AB708DF80B504FF47A7615F0B4FF4D49EE
:104E4800606910F07DFA60690FF0CDFB606801229F
:104E58000DF10B0103681F6903ABB847039BEBB95E
:104E6800013E4FF47A7015F0F6F8B6B2002EEDD187
:104E7800A368D3F874329B0603D53F49606910F0E4
:104E88005FFAA368502220463C495A871822A36833
:104E98001A870FF045FB6FF00700AFE79DF80B206E
:104EA800A3681B2A52D093F856111B29CED1522A37
:104EB8004CD15A19002382F85631A66896F8572122
:104EC8005B2A2AD106F25710022510F8011F2A463C
:104ED80001353B29ADB223D1FF2AC9D002F5AB7207
:104EE80016FA82F1002211F8010F18BBFA2A86F887
:104EF8005601A16828BFFA22FA2B4A8728BFFA234D
:104F0800A2681387A368D3F874329A0603D51A499E
:104F1800606910F015FA002070E786F85631A7E7A7
:104F280003EB83033039B5F5807F01EB43018BB286
:104F3800CBD19DE7013502EB82023038ADB200EBF0
:104F48004200B5F5807F82B2CDD191E72B4401357F
:104F5800ADB283F85621092D7FF678AFA3680022F9
:104F680083F8562184E700BF02DC0108EDDB010865
:104F780004BC010856DC010808BC01081CDC010857
:104F88002DE9F04F074689B01546894621B11046EC
:104F980010F03BFB00285BD1032455E05C463CE065
:104FA80029460AF5AB7015F051FF0646002854D083
:104FB800FBF768FC314682B2601C08F10108013237
:104FC800304415F0D6FE22465946304615F0C3FE49
:104FD8004FF020033355BAF8543001331C44AAF873
:104FE8005440002401994B1C03AA48460193FFF73B
:104FF80025FB0646E8B100223168284610F0CBFCB4
:105008000028EFD1D6F800B0D7F808A0BBF1000F00
:10501800C4D05846FBF736FC84B2BAF8543023445F
:10502800FF2BBDDD01242B460D4A032138460FF026
:1050380019FFB8F1000F07D0B8682A4600F15401EB
:1050480000F5AB700FF052FC204609B0BDE8F08FB8
:105058004FF0000802244146C5E70224E9E700BFF3
:1050680018E101082DE9F843054600AF0C46002970
:1050780048D0DFF8B890D9F800305A0742D06E46C9
:105088008AB0A3686A46D1E90001DFF8A4C04FF0EE
:105098000508C2E905C0C2E9071342F8108F0023CA
:1050A8004FF421514846FDF77FFAD9F80030B5464C
:1050B8005B0727D08AB06369D4E903016A46DFF841
:1050C80074C0C2E90713C2E905C042F8108F002373
:1050D80048464FF42151FDF767FAD9F80030B54634
:1050E80058070FD0E3690121134A48460EF0A7FF7D
:1050F800D9F80030590705D0A369104A012148465C
:105108000EF09DFF012D0AD1EFF3058307480268D1
:10511800520704D00A4A103B29460EF090FF214658
:1051280028460BF031FDBD46BDE8F883BC0B0024D2
:105138006AE1010899E10108C8E10108D7E101081D
:1051480005E2010830BFFFF7FDBF00BF2DE9F041C0
:105158000B4E0546DFF82C80324606EB0807CC1BC1
:105168000949204615F0F7FDA019083C42460021E0
:1051780015F019FE07F10800C5F8B840BDE8F08140
:105188000000000008000000C0BB0108054B5A6978
:105198009B689A4204D0044A536843F08053536092
:1051A800704700BF982A002400ED00E0F8B5374C9E
:1051B80006460D4623685B0703D03549204610F0A4
:1051C80074FA344B9B6ADF0451D52368580703D01F
:1051D80031492E4810F069FA17202E4B9B6A1905A1
:1051E80007D523685A0703D02C49284810F05DFAE0
:1051F8001820284FBB6A9B0519D52368580703D088
:105208002749224810F051FABB6BBA6A11040DD530
:105218002268520704D0234A01211C480EF00FFFD0
:1052280026B11C4A936A23F4004393621920194B50
:105238009B6A5B0507D523685F0703D01A491348A3
:1052480010F033FA1A20134B9A6AD60511D5236841
:10525800590703D015490D4810F027FA1B200D4AAD
:10526800936A43F47F43936200232B70F8BD1620A2
:10527800B3E79B6A9A04F2D523685B0703D00C490D
:10528800024810F012FA1C20E9E700BFBC0B00240A
:1052980018E2010800ED00E02EE201083FE20108F3
:1052A80052E201086BE2010880E201089BE2010872
:1052B800B3E2010810B52D4C23685A0703D02C49D6
:1052C800204610F0F2F92B4B9B6A9B014BD52368C3
:1052D800580703D02849254810F0E7F91E20254B28
:1052E8009B6AD90107D523685A0703D023491F4869
:1052F80010F0DBF91F201F4B9B6A1B0307D523689F
:10530800580703D01E49194810F0CFF92120194B2E
:105318009B6A590307D523685A0703D019491348CC
:1053280010F0C3F92220134B9B6A9B0307D523680F
:10533800590703D014490D4810F0B7F923200D4B35
:105348009B6ADA0307D523685B0703D00F49074830
:1053580010F0ABF92420074A936A6FEA03436FEA17
:105368001343936210BD1D20B9E700BFBC0B002496
:10537800E2E2010800ED00E0FAE201080DE30108AD
:1053880027E3010845E301086AE3010884E301080B
:105398002DE9F047454D8946804617462B68590741
:1053A80003D04349284610F080F9424B9B6ADA063D
:1053B80039D52B685B0703D03F493C4810F075F995
:1053C80011243C4B9B6A1E0707D52B68580703D04E
:1053D8003A49364810F069F91224DFF8D8A0DAF80B
:1053E8002830990721D52B685A0703D034492F480C
:1053F80010F05BF9DAF83460DAF828301B0651D57A
:105408002B685C0705D02F4A3346012127480EF048
:1054180016FEB9F1000F04D0264A936A23F08003E0
:105428009362132403E01024CBE76FF01506214B99
:105438009B6AD80707D52B68590703D022491B4810
:1054480010F033F914241B4B9B6A9A0607D52B6876
:105458005B0703D01D49154810F027F91524154B93
:105468009A6AD50602D49A6A90070AD55B68190524
:1054780007D54146304600F04DFA10B180F309884F
:1054880002240C4B9A6A920603D55A6A22F40052F7
:105498005A629A6A204642F0FF029A6200233B70E1
:1054A800BDE8F0876FF01506BBE700BFBC0B002412
:1054B800AFE3010800ED00E0C5E301083FE20108A1
:1054C800F8E3010810E4010826E40108B3E2010842
:1054D8002DE9F041744B8AB004460025D3F80480C6
:1054E80000AFC8F3080685F31188BFF36F8F02F089
:1054F8007F43B3F17F4F0AD102F00C03082B15D17B
:105508006A480368590702D0694910F0CEF80025A7
:105518002C460023FB71F31E092B00F2A080DFE864
:1055280003F00A92958E9E9E9E9E9E9812074CBFEF
:105538000C460125EDE75D4E33685B0703D05D49F6
:10554800304610F0B2F80023FB71574BDA6A900727
:1055580008D53368590703D05749544810F0A5F8BF
:1055680000233CE0DA6A002A04DA33685A07F7D0E5
:105578005249F2E7DB6A5B00F2D53368580703D07B
:105588004F494A4810F091F8474BA1695A6942F4CB
:1055980080725A61BFF34F8FBFF36F8F5A6931F82A
:1055A800021C22F480725A61BFF34F8FBFF36F8FD2
:1055B8004DF60272914208D09A6AD2B292B3FA1D9D
:1055C80001212046FFF7E4FE3BE03368590705D088
:1055D80023683C4A012135480EF031FD2368FA79E9
:1055E800E2B907F1080604F1200C2068083454F8E1
:1055F800041C3246644503C21646F6D17A6A002D69
:105608004DD0C2F3080121B96FEA52226FEA422253
:105618007A6207F108011846FFF724FD2837BD46CE
:10562800BDE8F0819A6A12F47F4F04D0F91D012079
:10563800FFF7BCFD05E09B6AB3F5803F90D3FFF709
:1056480039FE0346CBE7FA1D0021BAE7F91D002011
:10565800EEE7164803685A0782D01B497EE71348CD
:1056680003685B073FF47CAF18F4F87F174AE846F5
:105678008AB0174B18BF13466A461649103EC2E94E
:1056880005134FF40073D6611384134B42F8103F8F
:1056980000234FF41151FCF787FFC54660E722F459
:1056A800FF7222F00102B3E700ED00E0BC0B00241A
:1056B80073E401089EE40108B5E40108D6E4010892
:1056C800E4E4010803E501081FE501085AE40108BC
:1056D80045E4010843E5010804000001044B5A6948
:1056E80042F010025A615A6922F008025A61704762
:1056F80000ED00E0EFF30880EFF3098101B5724691
:10570800FFF7E6FE01BD00BF0E4880F308881020B1
:1057180080F311880C484FF0AA014FF4046214F08A
:10572800D4FC09484FF40461401880F30988EFF36A
:1057380014800221084380F31488BFF36F8F00F0B0
:10574800B3F800000055002440470024084B9B682C
:1057580083420BD1EFF3058343B1064B5A6842F0FD
:1057680080525A605A6A22F400425A620CF0BABC5B
:10577800982A002400ED00E015498A684FF03000AF
:105788001044EFF3098C80E8F01F102080F3128892
:10579800BFF36F8F0F4F4FF000664A698A603E6013
:1057A800D2F8B8000C4C2060D2F8BC000023C2F834
:1057B800BC3080F3118804B5104600F05BF9BDE8F1
:1057C800044002F1300090E8F01F8CF3098870471C
:1057D800982A002404ED00E0A02200241EF0040F03
:1057E8000CBFEFF30880EFF30980816911F8021C00
:1057F8000229FFD001B572460FF04CFF01BD00BF72
:1058080000B2002807DB0123410900F01F00024A0B
:10581800834042F82130704700E100E000B20028E0
:105828000CDB4309012200F01F00054920338240A8
:1058380041F82320BFF34F8FBFF36F8F704700BF2E
:1058480000E100E04209054B00F01F0053F8222058
:10585800012303FA00F01040704700BF00E100E0A8
:1058680000B2013100284FEA0111C9B206DB00F18C
:10587800604000F5614080F80013704700F00F00A9
:10588800014B1954704700BF14ED00E0044B054A62
:1058980023F07F039360BFF34F8FBFF36F8F704781
:1058A8000000000800ED00E008B5FFF7EFFF0C4A24
:1058B800D2F8883023F47003C2F88830EFF31483E9
:1058C80023F0040383F31488BFF36F8F0BF05CFAA3
:1058D8000CF0A4FD00F05CF80FF006FF0BF0B0FA36
:1058E80000ED00E042F8203C203A009B0849536054
:1058F800019B21F001019360029B9161D3604FF0FD
:105908008073D36100230265C0F8BC30704700BFC4
:10591800011B00080A4A0346906878B113F1160F74
:10592800D0F8A80005D0A0F140029A4205D88342D9
:1059380003D2814228BF002070470020704700BF73
:10594800982A002415460D4A0E4608B50C4B90605F
:10595800D0F8B8201A6000F08DF82C4686F3098834
:105968000020044B98472046002100220023024CC7
:1059780020470000C9560108011B0008982A002486
:10598800A0220024014B10221A61704700ED00E0AC
:10599800002304481021C2180133962B82F8001303
:1059A800F9D1704700E100E008B5EFF30583064A36
:1059B800103B02EBC30152F8330049688847BDE841
:1059C8000840FFF7E3BB00BF1CB30108154A70B5D8
:1059D800536913F4803323D1C2F88430BFF34F8F57
:1059E800D2F8803043F6E074C3F3C900C3F34E33F2
:1059F8005B0103EA0406014646EA81750139C2F8EB
:105A08006052F9D2203B13F1200FF2D1BFF34F8F30
:105A1800536943F480335361BFF34F8FBFF36F8FE4
:105A280070BD00BF00ED00E00B4B5A6912F4003264
:105A380011D1BFF34F8FBFF36F8FC3F85022BFF35D
:105A48004F8FBFF36F8F5A6942F400325A61BFF328
:105A58004F8FBFF36F8F704700ED00E0024B0221BC
:105A6800024A034800F092B800000824000000240D
:105A78005CC10108D0F8A8204021054B403A1846DF
:105A88001A60044AC3E90112012100F089B800BF75
:105A9800A422002400000B1508B503461148D0F8CD
:105AA8009020C2F30722013A93420AD90E480268AD
:105AB800520703D00D4A01210EF0C1FA6FF015000C
:105AC80008BDC0F898300A6822F01F021A4342F055
:105AD8001002C0F89C208A6842F00102C0F8A02099
:105AE8001846EDE700ED00E0680B00245AE50108D0
:105AF800F0B50E4685B01F4604460025B54210DABB
:105B0800606828B3AFB1431E18420DD0124803682D
:105B18005B0704D0114A2B4601210EF090FA6FF072
:105B28001502104605B0F0BD1F28EFD921680B42B9
:105B3800ECD1236801A901930FF0D7FDA3680343B3
:105B4800D0B20393FFF7A8FF10F1160FE7D0421C5D
:105B580001350C34D2E700BF680B002480E501084A
:105B6800044B0522C3F89420BFF34F8FBFF36F8F08
:105B7800704700BF00ED00E0BFF35F8F024B0022CB
:105B8800C3F89420704700BF00ED00E010B5034C47
:105B980001232278FFF7ACFF207010BDF52A0024FE
:105BA8000B4A08B500231278FFF7A2FF10F1160F71
:105BB80007D0084A0021D2F89030C3F3072398424F
:105BC80000DB08BDC2F898000130C2F8A010F2E767
:105BD800F52A002400ED00E06A496B482DE9F043FE
:105BE800D1F8903085B00268C3F307239A4200F2D7
:105BF800C580FFF7C1FF4B69DB031ED50023C1F841
:105C08008430BFF34F8FD1F8803043F6E075C3F38B
:105C1800C904C3F34E335B0103EA0507224647EA8A
:105C28008276013AC1F87462F9D2203B13F1200F51
:105C3800F2D1BFF34F8FBFF36F8FD0E9004100223D
:105C48005048A24201F10C011AD1504C6846002577
:105C58004F4F2270FCF760FFDFF838810646DFF807
:105C68003891AE421FD1237800204649D1F89020C0
:105C7800C2F3072293427BDB0020FFF771FF4CE061
:105C8800C0F8982051F80C3C23F01F03134301324D
:105C980043F01003C0F89C3051F8043C43F0010372
:105CA800C0F8A030CDE700984FEA051C00EB0511BD
:105CB800CB683B40B3F5000F44D00AD8B3F5001FBA
:105CC8002ED0B3F5800F34D0B3F5801F10D0013536
:105CD800C7E7B3F1807F3ED0B3F1007FF7D150F82A
:105CE8000C3088680FF001FD4A6840F4802009E014
