:020000040800F2
:10000000403A0024F554000837F80008E15400088D
:10001000E1540008E1540008E15400080000000029
:10002000000000000000000000000000ED55000886
:10003000E154000800000000895500083D840008D4
:100040007557000875570008755700087557000860
:100050007557000875570008755700087557000850
:100060007557000875570008755700087557000840
:100070007557000875570008755700087557000830
:100298007BB972B90029BEBF00204FF0004106E0CB
:1002A80008BF00281CBF6FF000414FF0FF3000F07E
:1002B80057B8ADF1080C6DE904CE002909DB002B15
:1002C8001ADB00F07CF8DDF804E0DDE9022304B075
:1002D8007047404261EB4101002B1BDB00F06FF8D7
:1002E800DDF804E0DDE9022304B0404261EB41019E
:1002F800524263EB43037047524263EB430300F0FF
:100308005EF8DDF804E0DDE9022304B0404261EB69
:1003180041017047524263EB430300F050F8DDF8A7
:1003280004E0DDE9022304B0524263EB4303704763
:1003380053B94AB9002908BF00281CBF4FF0FF3144
:100348004FF0FF3000F00CB8ADF1080C6DE904CEA9
:1003580000F035F8DDF804E0DDE9022304B0704769
:10036800704700BF10F8012B11F8013B012A28BF84
:100378009A42F7D0D01A7047034611F8012B03F8B8
:10038800012B002AF9D17047034613F8012B002AE4
:10039800FBD1181A01387047430803F05533C01AC7
:1003A80000F03333800800F03330184400EB1010AD
:1003B8004FF0013300F00F305843000E70472DE91D
:1003C800F04786468C460846089E154674461946E8
:1003D800002B40F0C2808542B2FA82F245D94AB178
:1003E800C2F1200300FA02FC2EFA03F3954043EA17
:1003F8000C0C94404FEA154EA8B2BCFBFEF8230C37
:100408000EFB18CC08FB00F943EA0C43994528D9A0
:10041800EB1808F1FF3704D2994502D9A8F1020771
:100428002B44A3EB0903A4B2B3FBFEFC0EFB1C3365
:100438000CFB00F044EA0344A04214D92C190CF137
:10044800FF3304D2A04202D9ACF102032C44241A8F
:1004580043EA07401EB1D440002334607360BDE80E
:10046800F0874746DDE76346F1E792BB431B01216E
:100478004FEA154EAFB2B3FBFEFC200C0EFB1C334B
:100488000CFB07F840EA0343984562D9EB180CF1D6
:10049800FF3004D2984502D9ACF102002B44A3EBFB
:1004A8000803A4B2B3FBFEFC0EFB1C330CFB07F7DE
:1004B80044EA0344A7424ED92C190CF1FF3304D265
:1004C800A74202D9ACF102032C44E41B43EA0040E2
:1004D800C0E7C2F1200320FA03F1954090402EFABC
:1004E80003F303434FEA154EAFB2B1FBFEFC0EFB1C
:1004F8001C10190C0CFB07F841EA0041884504FA66
:1005080002F422D969180CF1FF3004D2884502D9C7
:10051800ACF102002944A1EB08019BB2B1FBFEFC3F
:100528000EFB1C110CFB07F743EA01439F420ED94F
:10053800EB180CF1FF3104D29F4202D9ACF1020151
:100548002B44DB1B41EA004192E76046E3E7614642
:10055800F7E76046A3E76346B7E7834206D916B9CB
:10056800002108467BE7C6E900E0F9E7B3FA83F71C
:100578008FB9834201D3724508D8BEEB020460EB01
:10058800030301209C461EB9002168E73846FAE7B4
:10059800C6E9004CF8E7C7F1200CBB4022FA0CF47E
:1005A8001C432EFA0CF120FA0CF3B84001434FEA31
:1005B80014490EFA07F5B3FBF9F81FFA84FE09FB94
:1005C80018300B0C08FB0EFA43EA00439A4502FA6E
:1005D80007F240D9E31808F1FF3004D29A4502D94E
:1005E800A8F102002344A3EB0A0389B2B3FBF9F88C
:1005F80009FB183308FB0EFE41EA03418E452CD94E
:10060800611808F1FF3304D28E4502D9A8F102031C
:10061800214443EA0040A0FB0298A1EB0E014145AA
:10062800CE46434602D306D14D4504D2B9EB020E5D
:1006380068EB04030138002EA6D0B5EB0E0261EB7F
:10064800030101FA0CFC22FA07F34CEA0303F94010
:10065800C6E9003198E74046C5E74346D9E70000B8
:100668002DE9F047044688B08846174611F0ACFDDE
:100678000A220023FFF75CFEB8F1010F06460D467B
:1006880007D102460B46204627490DF0F0FF00200F
:1006980011E07F6825483946FFF764FE70B1394696
:1006A8002348FFF75FFE48B120463A4621490DF03E
:1006B800FAFF6FF0040008B0BDE8F087304629461D
:1006C80017A3D3E90023FFF7E3FD06460D461046BE
:1006D8001946194A0023FFF7DBFD80460F461046EE
:1006E80019464EF660220023FFF7D2FD824689465E
:1006F800104619464FF47A720023FFF7C9FDCDE979
:1007080002A9CDE90623CDE9040132462B460B495F
:100718002046CDE900870DF0AAFFB8E7AFF30080C7
:10072800005C2605000000000B4501081C45010877
:100738001F4501082845010880EE3600404501089C
:10074800064808B5036803F00703022B03D9044AD7
:1007580003210CF016FD012001F094F91C0300247C
:10076800F43B010810B5064C23780BB1002010BDEE
:10077800044805F09FFC0028F9D101232370F5E710
:100788001C140024000000242DE9F041A44C8CB076
:10079800236802AF03F00703022B04D9A14A0321FF
:1007A80020460CF0EEFC0D239F4D3B730023BD60EB
:1007B800FB81284611F09BFA002841D04FF4803184
:1007C80007F108000CF02FFD034600282ED19749A9
:1007D800974B4B604FF400538B60AB68DB6913B1E8
:1007E800012228469847B868397B836802699D6961
:1007F8005DB1012312688B4013424FF0A07214BF01
:100808004FF000734FF08063A847FFF7ABFF031E5C
:1008180020DA2268510704D0864A012180480DF069
:1008280071FC00202837BD46BDE8F081226812F02F
:10083800060FEAD0804A022179480DF063FCE4E70C
:10084800236813F0060FE0D07C4A022174480CF0AC
:1008580098FCDAE7002307F108061F2278487B6036
:1008680031463B1D0CF0B7FC054600286AD17B6871
:100878000025744930461F2B84BF1F237B607B688B
:100888002833DA1902F8205CFFF76CFD2368E8B119
:1008980013F0060F12D0E84688B002AA6A4BC2E9E4
:1008A80005364FF400739383684B42F8103F4FF4BA
:1008B800E4512B465A4801F043FDC54605226149DB
:1008C8005F480CF060FC051EC0F28380236803F0CB
:1008D8000703022B04D95E4A032151480CF051FC4E
:1008E8004FF0000842230122F91C5A48FB700CF013
:1008F8004AFC0346002840F0C380236803F007033E
:10090800022B04D9544A032145480CF03AFC002331
:100918000122391D4F483B71BB6033460CF05BFC2C
:100928000346002858D1BA68012A55D1236803F034
:100938000703022B5AD93B79484A032138480DF05E
:10094800E1FB53E0821C37D105223E493C480CF0BC
:100958001AFC23680546A8B903F00703022B0ED931
:100968003F4A03212E480CF00CFC236803F00703D0
:10097800022B04D93B4A032129480CF002FC4FF012
:100988000108AFE75B070ED10028F8DA4FF001083D
:10099800236813F0060FA5D0334A2B4602212048BE
:1009A8000DF0B0FB9EE7314A034601211C480DF0CB
:1009B800A9FB002DEADBD8E72368580707D02C4AA3
:1009C8002B46012116480DF09DFB002D7CE7002DDC
:1009D80086DA4FF00008DBE72268510706D0BA68CC
:1009E800012100920E48234A0DF096FB002322486D
:1009F8003B73B860FB8111F07AF900287AD04FF484
:100A0800B01130460CF00FFC034600283ED0226897
:100A180012F0060F3FF405AF184A0221FEE600BFA8
:100A28001C030024143C010840280108A00E0024DF
:100A380049070008713C0108303C0108543C010892
:100A48008B3C01089D3C0108A33C01080300000100
:100A5800993D0108BD3D0108CE3D0108EB3D010867
:100A6800D03C0108573D01082E3D0108EA3C010829
:100A78000D3D0108083E010864280108433E0108AD
:100A880022685207B2D0214A012157E7236803F0B0
:100A98000703B8F1000F14D0022B04D91C4A032114
:100AA8001C480CF06EFB0124397BB86804FA01F18C
:100AB80083685B699847002140F6C41011F0F7FA83
:100AC800F2E7022B04D9144A032112480CF059FB0F
:100AD8003B7B0121B868994003691B681942836808
:100AE8000CBFDB681B69984700214CF2503011F0AD
:100AF800DEFAF9E7236813F0060F3FF492AE074ACF
:100B0800022104480CF03DFB8BE600BF293E01089A
:100B1800603E01081C030024823E01089F3E010834
:100B2800012938B5054605D821496FF015040DF09F
:100B38009EFD14E054681F492046FFF713FC80B956
:100B480000F0C4F9044628B102461B4928460DF0B6
:100B58009CFD04E0194928460DF089FD0024204633
:100B680038BD17492046FFF7FDFB40B900F0F8F9FA
:100B7800044610B102461349E8E71349EBE7134965
:100B88002046FFF7EFFB78B900F02EFA041E02DAD0
:100B980022460F49DAE708BF0E4A284618BF0E4A10
:100BA8000E490DF064FDD9E70D492846BDE700BFA1
:100BB800D93E01089A3C0108FA3E01080F3F010896
:100BC8001E3F0108223F0108383F0108C7400108BD
:100BD800483F0108D03E0108C83E0108603F0108AF
:100BE8006B3F01082DE9F041C4B000230546884653
:100BF80003A81746039300F0E3F8044640B1024601
:100C08001A4928460DF041FD204644B0BDE8F08160
:100C1800B8F1010FBDF80C6016D915497868FFF7CF
:100C2800A1FB88B904A98022304600F0E3F924A981
:100C38008022BDF80E0000F0DDF924AB04AA0D49AE
:100C480028460DF014FDDFE7304600F025FABDF820
:100C58000E800746404600F01FFA3B4632460649DA
:100C6800CDE9008028460DF002FDCDE7823F01085E
:100C7800993F01089C3F0108AE3F010810B5194C87
:100C880088B0237883B9184811F031F890B917481B
:100C9800036813F0060F03D0154A02210DF029FA54
:100CA8006FF0120008B010BD00F0D4F80028EAD0A8
:100CB8000020F7E76B4600220E490092C3E90122A3
:100CC8004FF48372CDE9031293E8070008AB03E9F8
:100CD800070003A9044800F04BF80028E2D10123DB
:100CE8002370DFE71D14002418290108DC02002402
:100CF800D23F010840420F0038B50546FFF7BEFF56
:100D0800044628B9054928460DF0B1FC204638BDEF
:100D18000246034928460DF0B8FCF7E7F23F010800
:100D28000940010838B50546FFF7A8FF044640B951
:100D380000F09EF8044630B10246054928460DF0F9
:100D4800A4FC204638BD034928460DF090FCF8E77E
:100D58001E4001083040010810B413468268146828
:100D68000A460249A44610BC604700BFF80E00249A
:100D780038B505460C4610F0BAFF50B90B48036861
:100D88005B0703D00A4A01210CF06EFA6FF01200DB
:100D980038BD084B1D60084D0FCC0FC523680122D4
:100DA80000202B60054B1A70F2E700BFF802002400
:100DB800DB4001080C0F0024F80E00249F140024C7
:100DC800214BF0B51F6891B00546002F39D010248B
:100DD80008AE00212246304611F0F6FA0CAB224646
:100DE8000021184611F0F0FAD0220DEB040302A9F5
:100DF8008DF820208DF8242006AA0594CDF808D077
:100E0800CDE900640126CDE903603846CDE9063610
:100E1800FFF7A2FF044650B9BDF835305BBA2B8006
:100E2800BDF839305BBA6B80204611B0F0BD074879
:100E380003685B07F8D0064A234631460DF062F98D
:100E4800F2E76FF01204EFE70C0F0024F802002419
:100E5800F0400108044B187820B1044B186800389A
:100E680018BF0120704700BF9F1400240C0F0024F6
:100E780008B5002010F03BFF50B9124803685B0723
:100E880003D0114A01210CF0EFF96FF0120008BDF0
:100E980000214FF4D01208460CF0F8F90022114650
:100EA80010460CF0E3F90021642011F000F900214C
:100EB800012208460CF0DAF93220002111F0F7F887
:100EC8000020E4E7F80200241641010838B51D4C5B
:100ED8001D4D23687BB91D480AF0C4F9206050B93C
:100EE8002B685A0704D01A4A012128460CF0BCF98D
:100EF8006FF012001EE0206810F0F9FE30B92B6880
:100F08005B07F5D0134A01210F48EFE720684FF43B
:100F1800D0120B210CF0BAF901220B2120680CF039
:100F2800A5F90D4B01221A702B6803F00703022B59
:100F380001D8002038BD094A032103480CF094F970
:100F4800F7E700BFF40E0024F80200242B41010843
:100F5800314101084D4101089E14002462410108F5
:100F680038B51A4D1A4C2B687BB91A480AF07AF929
:100F7800286050B923685A0704D0174A012120462F
:100F88000CF072F96FF0120018E0286810F0AFFE4C
:100F980030B923685B07F5D0104A01210C48EFE708
:100FA80000220B2128680CF061F90D4B00221A7001
:100FB800236803F00703022B01D8002038BD094A33
:100FC800032103480CF050F9F7E700BFF40E0024A2
:100FD800F80200242B410108314101084D41010864
:100FE8009E14002476410108014B1878704700BF11
:100FF8009E140024F8B5074616460D4600293AD037
:10100800002A38D003461D4A314628460BF056FDC3
:10101800BA05044605D5311A194A28180BF04EFDB1
:1010280004443B0605D5311B2819164A0BF046FD2A
:101038000444B80605D5311B2819134A0BF03EFDA8
:101048000444790505D5311B2819104A0BF036FDE3
:1010580004443A0505D5311B28190D4A0BF02EFD1D
:101068000444BB0705D5311B28190A4A0BF026FD95
:1010780004442046F8BD6FF01504FAE78B410108D7
:101088009A4101089F410108A6410108AC410108A5
:10109800B9410108C641010838B51B4D0023044673
:1010A8002B7000282ED0820503D51849284611F048
:1010B800A3F9230603D51649134811F09DF9A00694
:1010C80003D51449104811F097F9610503D5124961
:1010D8000D4811F091F9220503D510490A4811F07D
:1010E8008BF9A30703D50E49074811F085F92B782A
:1010F8000BB1054838BD23460A4A802102480BF047
:10110800DDFCF6E70848F5E71E140024D441010881
:10111800D9410108E0410108E6410108F34101080D
:101128000042010806420108CC4101082DE9F04FB0
:1011380091B0840705460E46009302F00403DDF8DB
:1011480068800293C2F3C203039203F1010305937B
:1011580040F0BA81041D30B1072909D86FF01B008F
:1011680011B0BDE8F08F01F007063444C6F1080657
:10117800009B4FF000094FF0040A591E4FF0FF334F
:101188004F46CB4601935346CDF810900DB1009AC7
:1011980022600598002800F3E8809848009A824267
:1011A80003D397488242C0F0E080039AA4EB050E6F
:1011B80092074FEA9E0000F103810F2F00F2B180E1
:1011C800002D00F0058107F140020DEB020C019A99
:1011D8000CF8200C0CF8102C049801300490E7E06F
:1011E8007A285DD84B280ED8472859D829282DD8D1
:1011F800252852D054D820287AD02338D0F1000B93
:101208004BEB000B74E04C382E2849D8DFE800F08F
:101218007048484848484848484848484B4848481B
:10122800484848484859484B4B595959704B6D489C
:101238007048184B184848827F4B48484B487F00F5
:1012480000204FF0000B4FF0040A38E02A38012242
:10125800C0B202FA00F010EA0E0F49D110F0625C39
:101268002FD110EA020B43D06046013C5444B4FB32
:10127800FAF40AFB04F4002D61D0A3EB050CA44496
:10128800B4453FF66BAF002868D1042B47D158F816
:10129800043B2360043404232AE0019A013A0192B2
:1012A8004FF0000B24E011F8010C6C2834D111F830
:1012B800023C00206C2B8346C5D14FF0080A5346E8
:1012C800D3E708F10708073428F0070824F00704D3
:1012D800F8E802AB35B106982044B0423FF63EAF7D
:1012E800C4E900AB08344FF0000B4FF0080A53462E
:1012F80011F8010F002878D0BBF1000F7FF470AF10
:101308002528F5D1019B4FF0010B013301934FF0D4
:10131800040AECE7584694E700208346A5E7082B23
:1013280002D06FF015001BE708F1070828F007083E
:10133800F8E80223C4E9002308340823D8E768B989
:10134800042B02D108F10408A4E7082BE9D108F11D
:10135800070828F0070808F10808EDE7059A013A98
:10136800059258F8042B009210E7039A900720D5AD
:10137800A4EB050E4FF0010C4FEA9E00BEF5007F6E
:10138800CFD20F2FCDD8F5B107F14002C0B20DEB87
:10139800020E019A0EF8200C0EF8102CBCF1000F6A
:1013A8003FF41AAF60F07F0009F101090EF8200C34
:1013B8000137C5F1080204344FF6DA7E069297E742
:1013C8004FF0000CDAE7BCF1000F01D00136EFE76F
:1013D800029802360028EBD10098CDE90631FEF7D5
:1013E800D3FF0644DDE90631E2E7631BB3F5806FFE
:1013F80097D23DB9A6F10804E018B1E6D425010852
:10140800806801089B08029A28602B709DF81030AC
:10141800C2B1EB7085F80290B9F1000F05D008A8A9
:101428000022C5F1010C97420ED1C5F101030DF15F
:1014380020084FF0000A0DF1300B0193574512D1E7
:10144800601B8DE66B70E5E710F8013B190608D5BF
:101458000CEB040E03F07F03B6453FF67FAE04F8AD
:10146800013B0132DFE7B9F1000F03D098F9002002
:10147800002A17DB029BD3B11AF80B2004F8012BC2
:101488000022019B18191044B0423FF667AE98F845
:101498000000009904F8010B2046039210F06CFF3D
:1014A800039A14440AF1010A08F10108C6E798F8FA
:1014B800002055F822300093029B009845F822300E
:1014C800FEF762FF421CDCE76FF00D0048E600BF44
:1014D8002DE9F04F97B00446894600AF90F802A076
:1014E800D7F880B03B62CBF3C003FA62BB6141B965
:1014F800457800780AEB800020444D4517D8A0EBCA
:101508000409E378FB61BAF1000F02D01BF0010F68
:1015180016D1FB6953BBFB6A1BB13A6A49462046A0
:1015280098474D4628465C37BD46BDE8F08F461CB7
:1015380009F101093046FEF727FF01303044DCE7A6
:101548002378626899007A62FA6A796104EB830108
:10155800002A40F004814D460E4601EB0A094FF07F
:1015680000084E4550D101EB0A0610E01BF0020FAF
:10157800D1D023789A0004EB83017A6162687A6299
:10158800FA6A002A7BD14D4601EB0A0690461BF009
:10159800050F0CBF02230123FB62FB6906EB430A1C
:1015A8000BF00203BB625645BCD016F8021B16F8B6
:1015B800013C54F823909B4B994502D39A4B99458B
:1015C8003AD3BB69002B44D0786A0CF06CF9002838
:1015D8003FD09648036813F0060F13D0E9468AB047
:1015E8006A46934B53617B6AC2E906314FF4007334
:1015F8001384904B42F8103F00234FF4125100F02F
:101608009FFECD46023DCEE716F8013BF96254F83D
:101618002300FEF7B9FED7F884300130F96A4BB1E0
:10162800D7F8883098453EBFD7F8843023F818009B
:1016380008F10108054494E7BB6923B1786A0CF006
:1016480032F90028C5D11BF0010F05D1FB6AED1A4C
:10165800A9E7BB6A002BA6D04846FEF795FED7F847
:10166800843053B1D7F8883098453FBF431CD7F82A
:10167800842022F8183008F10108054493E7BAF1EC
:10168800000F72D01BF0040672D0D046002607F176
:10169800480052463B61B96210F06EFEB96A3B6978
:1016A80001EB0A02F969BA62FA695200FA60BA6A89
:1016B80002EB41023A610BF00202BA603A69B96A78
:1016C8008A4257D11BF0020F62780CBF4FEA5801CB
:1016D80000217A621BF0010F3244D2B240F09F80A1
:1016E8001BF0040F14BF40460020BB616270A0705D
:1016F8002046E1703A6A7969FB6A9847051EFFF649
:1017080011AFBB6941463A6A07F1480023707B6A0A
:1017180084F802A06370FB69E370FB6A9847B0F134
:101728000008C0F2BB807B69A9EB0A013A6AC91AB2
:10173800FB68C91AD7E90A0398470028C0F2B080A5
:10174800A8444FF0000B07F1380A08EB0005B34531
:1017580072D300213A6AFB6A08469847E2E6564681
:101768004FF0000807F1380093E75646D04697E750
:10177800B04695E7BA6A12F8021B12F8015CBA6221
:1017880054F82500274A904202D3274A90421ED394
:10179800BA6932B1786A7B600CF085F87B680028FA
:1017A8008CD1BA6802BB08F1280207F1300C08F1A5
:1017B800010008F10208944407F158025FFA88F81A
:1017C80052FA80F00CF8101C00F8105C76E7BA6941
:1017D8003AB1786A7B600CF066F87B6800287FF481
:1017E8006DAF1BF0010F09D006F1280207F1300098
:1017F800711C161806F8205CCEB25FE71BF0040FC8
:101808003FF45CAF08F1280207F1300008F101014C
:1018180002EB000808F8105C5FFA81F84EE7002038
:1018280063E700BFD425010880680108D8020024B6
:101838001A420108040000011BF80A3054F82390EA
:1018480087F83730D7F884302BB3D7F888309B45E2
:1018580021D2D7F8843033F81B803A6A012107F186
:101868003700FB6A984700281ADB0544B8F1000FD7
:1018780006D14846FEF788FD00F101081FFA88F8EE
:101888003A6A41464846FB6A9847002808DB0544FF
:101898000BF1010B5BE74FF00008DEE7454641E638
:1018A80005463FE6214B70B582689A4215DD013343
:1018B800D0E9001692FBF3F301294FEAE37476F1BD
:1018C800000520DAC91844EB0604C0E900141849D9
:1018D80001FB03238360012070BD002AFBDAB2F10B
:1018E800004F1BBF9B1A13490323B3FBF1F3D0E945
:1018F8000041DE1700290FDA01F100459C42B5418D
:101908000ADA0020E8E7CD439D426FF00045A5EBD9
:101918000605A541D6DAF4E7E41A61EB0601C0E949
:101928000041044901FB03228260D4E7FFC99A3BC6
:10193800003665C400CA9A3B30B50446EFF31185FA
:10194800102383F31288BFF36F8F044B0FCB84E807
:101958000F0085F31188BFF36F8F30BDA0030024FB
:1019680001281FB50C4605D004281DD06FF01500BE
:1019780004B010BD10F028FC42F210720023FEF7EC
:10198800D7FC104B5A43C4E90001A2606846FFF730
:10199800D3FF694620460BF0ABFF18B90A4B0FCBB3
:1019A80084E80F000020E3E710F00EFC42F210720A
:1019B8000023FEF7BDFC034B5A43C4E90001A260B3
:1019C800F0E700BFA08601000031010801287FB5BB
:1019D8000D462DD18A68184B9A4229D810F0F4FB8D
:1019E80042F2107200236C46FEF7A2FC4042134BF1
:1019F80061EB41015343CDE9000120460293FFF713
:101A080051FF294620460BF073FFEFF31186102390
:101A180083F31288BFF36F8F094D94E80F0085E8B0
:101A28000F0086F31188BFF36F8F002004B070BDDC
:101A38006FF01500FAE700BFFFC99A3B6079FEFF17
:101A4800A0030024014B1860704700BF2001002448
:101A580080B505460E46174698460AF09FFBDFF804
:101A68002090034610F0A8FD0446424649F800308D
:101A780039463046A84754F8090003F06BFD00BF0B
:101A880008000000044608B5EFF31183102383F320
:101A98001288BFF36F8F03F0A9FE03F0EBFE0FF07F
:101AA800D9F8204603F044FD02480BF053FF0DF02F
:101AB800D7FEFCE7CE4201082DE9F84340F26C73EB
:101AC800446905690646E117E41805F10105C76888
:101AD80041F10001022D07F1FF378CBF00230123DC
:101AE800E41A61F1000100294EDA6FF4C7704FF46F
:101AF800C8720023201861F10001FEF7C9FB254BCD
:101B08004FF03C0E022D03FB004402468CBF6FF0E1
:101B180002000920D6E90083B66805444FEAE37C51
:101B280099469920634645430520C6FB0E93A9FBB9
:101B38000EC602350EFB0366A30840F26D1E1CEBB1
:101B4800080C0EFB043346EBE8763B446427B4FBF1
:101B5800F7F4B5FBF0F51B1B0F4C2B44A2FB04203C
:101B680004FB010198180D4A41F1000380180C4A42
:101B780063F10003A0FB020102FB031110EB0C0050
:101B880041EB0601BDE8F8834FF4C87200232046F4
:101B9800B3E700BF70FEFFFFB13A02009405F5FFFE
:101BA8008051010010B5FFF787FF002402460B465D
:101BB800034910F001FD44501046194610BD00BFFE
:101BC8000C000000054B00205A6822F002025A60FF
:101BD8005A6822F001025A60704700BF0010005C8A
:101BE80008B503F02DFE03F0D3FD0C4B0C4A1A6028
:101BF8000C4AD36823F0070343F00203D3600A4B6F
:101C08001A6841F20303B3EB124F06D1074AD2F820
:101C1800083143F00103C2F8083108BD4802002426
:101C28000090D003004802580010005C008000516A
:101C38002DE9F047044607464FF00109DFF85080C8
:101C480014B93846BDE8F08794FAA4F5B5FA85F5D5
:101C580009FA05F32E0108EB05156FEA030A24EAD1
:101C680003042B7B002BEBD058F806301B694BB9CB
:101C780046440422284607EA0A07736819680CF0E4
:101C8800B4F9DDE7284698470028D9D1F0E700BF26
:101C9800582F010830B5002289B00F490F4810F0BD
:101CA800DBFA0022002300240D4D0E49284600943B
:101CB800CDE906230E234FF44072CDE90334CDE974
:101CC8000144094B09F010FF0849284609F03CFE79
:101CD800204609B030BD00BFF91C00087808002470
:101CE800B003002400150024412000083F430108E8
:101CF800014809F0CFBD00BF900300242DE9F0474B
:101D0800804620480F460CF040F90646002832D09D
:101D180000252846BDE8F087237B83B12368DB686C
:101D28000BB120469847636883F8069023681B69BF
:101D3800CBB963680422204619680CF056F90136BD
:101D480010345445E8D3B8F1000FE2D0002DDFD0AD
:101D58002846FFF76DFF0546002FF7D000216420C5
:101D680010F0A5F9F2E7204698470028E1D009FAD3
:101D780006F31D43E3E7044C0546DFF810A04FF0D7
:101D88000109DEE7200F0024582F0108682F0108F9
:101D980008B5034608462BB1044A136000F072FDEB
:101DA800002008BD6FF01500FBE700BF24010024E8
:101DB80010B5044C237813B9034809F06BFD0123CF
:101DC800237010BDA01400249003002410B504460D
:101DD8000B480CF0DAF85CB10A4BBFF35B8F53E8A1
:101DE800001F013943E80012002AF8D1BFF35B8FC6
:101DF800054810F03DFA0548BDE8104009F04ABD15
:101E0800180F00241C0F00247808002490030024D5
:101E18000020064BBFF35B8F014653E8000F43E8F1
:101E28000012002AF9D1BFF35B8F7047180F002406
:101E380070B5FFF7EDFF084C0546084EB44200D3D5
:101E480070BD63685B792BB123685B6813B1294661
:101E5800204698471034F1E7582F0108682F0108E9
:101E680010B5044C044920460BF084FE034B1C605B
:101E780010BD00BF9C0200243C320108100F002452
:101E880000230E4A4FF47A710D4810B513700D4AAD
:101E980013600D4A1360FFF77BFFFFF7E1FF00F0C7
:101EA80079F90A4B0A4918468B4200D310BD1A1A11
:101EB8005C681033121101322271F5E7A114002475
:101EC800ADDF0008180F00241C0F0024582F01084C
:101ED800682F010801460022002301480BF06BBE61
:101EE8009C02002401480BF004BF00BF9C020024A0
:101EF800024B014618680BF050BF00BF100F0024BA
:101F080001480BF085BF00BF9C020024334B2DE92C
:101F1800F041187800285FD0FFF7E4FF0446002856
:101F280056D12F4B2F4C1B68002B12DD10F04CF9AB
:101F38000A220023FEF7FCF9D4E90032C01A40F265
:101F4800E93361EB0201984271F1000101D3FFF717
:101F58006FFFD4E9003213F57A7342F10002C4E945
:101F68000032BDE8F041FFF7CBBF6B685B793BB14E
:101F780021784B0717D52B68214628461B689847B8
:101F880010354545F1D32046FFF7B2FF164BBFF396
:101F98005B8F53E8001F013943E80012002AF8D18B
:101FA800BFF35B8FBDE726882046C1F3C20700F068
:101FB800A7FAC6F382160246002EDCD00028DADB28
:101FC80001233946284600F095F9B042D8D3D2E724
:101FD800064DDFF81C80D4E7BDE8F081A01400248A
:101FE800180F0024700800241C0F0024582F010823
:101FF800682F010870B50D4D297861B90C4C012086
:102008000C4EFFF77BFEB44206D3FFF77FFF002894
:10201800FBD101232B7070BD63685B791BB123680A
:1020280020469B6898471034EDE700BFA1140024B0
:10203800582F0108682F010800212DE9F0470846AC
:10204800FFF75CFE044658B34FF4FA784FF00009E6
:102058001C4B10F0B1FA1C4A1B58136033B11B4BD0
:102068001B68092B02DD1A4809F014FC0025194FDA
:10207800DFF85CA044B12046FFF7DAFD044618B942
:102088004FF0FF384FF0FF39FFF740FF064628B9F9
:10209800B5B942464B46504609F030FC3546E9E7AB
:1020A8004FF0FF384FF0FF39D2E72B689B691BB11F
:1020B80000222846114698471035BD42F5D3E8E777
:1020C800054DFAE708000000140F00241C0F002437
:1020D80090030024682F0108582F010813B51848E9
:1020E8000BF053FF174B1B7873B1EFF311841023D8
:1020F80083F31288BFF36F8FFFF708FF84F311880B
:10210800BFF36F8F02B010BD0F4B1B68002BF9D0C7
:1021180050B9002200230D48CDE9002342F2107285
:1021280000230AF0B1FBEDE70928EBD1074810F0CE
:102138009FF8074802B0BDE8104009F0ABBB00BFEC
:102148001C0F0024A1140024140F00247808002474
:1021580090030024064B10B504461B689847214697
:10216800A06004480BF0A6FDBDE81040FFF7B6BF1D
:10217800240100249C020024044A054B9B1AB1EB5D
:10218800D30F34BF52F8310000207047A82E010841
:10219800582F01080B4800210B4B1B1A043030B58F
:1021A800DB080A4C994200D130BD10F831200131CA
:1021B800256802F0070225F007052A4344F8042B96
:1021C800F0E700BFA82E0108582F0108D802002404
:1021D800F8B50B4F06460B4D0024ED1BED08AC423D
:1021E80003D14FF0FF342046F8BD57F8340020B132
:1021F8003146FEF7B7F80028F5D00134EFE700BF05
:10220800A82E0108582F010800282DE9F047884614
:1022180015461F461DDADFF898904FF0000A254E44
:102228005446A6EB09063609B24509F1100902D150
:102238002046BDE8F08759F80C0C3B462A46414633
:1022480000790AF1010AFFF7DFFF844238BF04462C
:10225800EAE7194B194AD21AB5EBD20F25D203EB8C
:10226800C5031C79BC4228BF3C46C0B20722144EA5
:10227800002100EB400056F82530824023EA020393
:1022880004F0070282401343032223FA02F00332C8
:1022980000F00700814238BF01461E2AF5D123F01D
:1022A80007030B4346F82530C2E70024DDE700BFEB
:1022B800582F0108682F0108A82E0108582F010877
:1022C800D8020024F8B5094D0646094B0F460024EC
:1022D800ED1AED08AC4200D3F8BD22B201343B46FA
:1022E80000213046A4B20BF078FEF3E7582F01081E
:1022F800A82E010870B14168097973B1002A17DB6B
:10230800CBB20C4903EB430351F82200D84000F04C
:10231800070070474FF0FF31EFE707490748401AB9
:10232800B2EBD00F3ABF01EBC201087918467047EB
:1023380004207047D8020024A82E0108582F01084D
:102348002DE9F04F8FB0C1F34A280D46914604AFEE
:102358000C0DB8607B60B8F1000F67D0002607F15C
:1023680014034FF0040B4FF00A0AC7F80C803246EA
:102378007E624846C7E90766019307F11C03CDF85A
:1023880008B0CDF800A0F968FFF7A2F8B0F5006F23
:10239800034620D32A48036813F0060F17D06C466B
:1023A8008AB0D9F8041004AB264D1A46C3E9055182
:1023B80040F2FF71D9614FF400711984224B42F841
:1023C800103F4FF412513346FFF7BAFFA5462C379A
:1023D800BD46BDE8F08FC0F30A0804F117003B6062
:1023E800184468F3532520F007008008FFF772FDB2
:1023F800044690B13B6800F11001144A4846F9615F
:10240800C7E9083607F11403CDF808B0CDE900A3F1
:1024180007F11C03F968FFF75BF868F353257B683D
:10242800B96820462A460BF014FED0E704F11700DD
:1024380020F007008008FFF74DFD0446EDE700BFD8
:102448000003002454430108040000012DE00008A3
:102458002DE9F04F87B00446934698460391DDE98D
:102468001279DDE9105ADFB13B46524610210020AF
:10247800CDF80090CDF81490FEF758FEB0F5006F37
:1024880006460ED31C48036813F0060F30D040F2FE
:10249800FF731A4A022107B0BDE8F04F0BF032BEB5
:1024A8003E4604F0070405F117000BF0070BE400A3
:1024B800304444EA8B1420F0070044EA462480089C
:1024C80044EA0554FFF706FD054640B13FB13B46D7
:1024D800524631461030CDF80090FEF727FE4346AD
:1024E80022460399284607B0BDE8F04F0BF0B1BD6E
:1024F80007B0BDE8F08F00BF000300249343010834
:10250800406820B1034BC01A40F38F0070474FF06A
:10251800FF307047D80200240EB403B503AB014660
:10252800054853F8042B019303F034FB02B05DF81F
:1025380004EB03B0704700BF6FE10008CA0605D47A
:102548008B064CBF02490349FFF7E6BF704700BF3F
:102558000F480108CB4301082DE9F04F89B09B468D
:1025680004460D46149B90469DF84CA00693159B77
:10257800179E0593169B0493BAF1000F00F09D80F7
:1025880006F4807306F0020907930BF024FD024657
:1025980000283ED091492046FFF7BEFF0746B9F113
:1025A800000F08D016F0440F35D12A468C49204632
:1025B800FFF7B2FF074406F0010353B1894B2046E9
:1025C800894953F82A20894B002A08BF1A46FFF781
:1025D800A3FF06F48073002B49D006F00803002BF4
:1025E80063D1B8F1000F66D0424681492046FFF713
:1025F80093FF0546069B3D44002B6DD1049B002BA1
:1026080073D1F30700F1E48031462046FFF796FFC7
:10261800D8E00746C3E7774B18680028CAD0764B3E
:102628004FF47A794FF03C0C1B68B5FBF3F5B5FB1A
:10263800F0F100FB11554FF4616309FB05F5B1FB9F
:10264800F3F2B5FBF0FE03FB121100FB1E55B1FBC4
:10265800FCF309FB05F50CFB1311B5FBF0F5009134
:1026680020466649CDE901E5FFF756FFA2E706F0E7
:102678000803EBB1624B2046624953F82A20FFF762
:102688004BFF0546B8F1000F05D042465849204691
:10269800FFF742FF0544BBF1000FABD05A465A4939
:1026A8002046FFF739FF0544A4E74FF0000BE1E7A8
:1026B80006F00805E6E745469CE7BBF1010F069BD7
:1026C80006D1002B64D1049B002B7BD000250CE0A5
:1026D800002BF8D04D485CE04D48069B22464D49FA
:1026E8000BF0B0F8049B002B68D0DFF82C81DFF8E2
:1026F8002C91049F4FF0000B31462046102F28BF25
:102708001027FFF71BFF5D4545DC059B4FF0010BCC
:10271800494620461A78FFF7FFFE1BF0070F03D142
:1027280041462046FFF7F8FE5F453BD9059B4946E1
:10273800204613F80B20FFF7EFFE0BF1010BBBF15E
:10274800100FEAD14FF0000B35492046FFF7E4FEA1
:102758005A46059B20469A5CA2F120015F2931491F
:1027680028BF2E22FFF7D8FE0BF1010BBBF1100F8B
:102778001DD01BF0070F03D141462046FFF7CCFEC2
:102788005F455A46E5D841462046FFF7C5FEEBE7C8
:102798001F485546A1E7414620460BF1010BFFF7BC
:1027A800BBFEB0E720492046FFF7B6FEC5E7059B0C
:1027B8003B440593049BDB1B04939AD1BAF1000FA9
:1027C8007FF41FAF204609B0BDE8F04F0BF0BEBC48
:1027D800064A20460449FFF79FFE15E7F65101080F
:1027E800D343010850320108B24A0108CE43010818
:1027F800F8430108280F0024240F0024DC430108B3
:1028080064320108FC43010802440108A5E10008FC
:102818006FE100089D5B00080F44010807440108A8
:1028280011440108DA5101080D44010842F20F73FE
:10283800114A8B4273B5044628BF0B46056805212B
:1028480068460AF03BF9636806460B2228465B682F
:102858000A490BF06DFC63683246694628465B6896
:102868000BF066FC63681B2205495B6828460BF081
:102878005FFC02B070BD00BF5D3E01082F44010837
:102888001344010800210123064A904206D8064A4B
:1028980001B901231360054B1860704740080121F6
:1028A8005B00F2E740420F00240F0024280F0024A9
:1028B800014B03600120704778320108104B70B556
:1028C8001C680D46B4B10F4B196800238B4202DB1C
:1028D8006FF0010070BD224612F8146B864202D0D8
:1028E80001331446F2E7E0680FF001FA28B100203E
:1028F8002C60EFE76FF00C00ECE76FF01200E9E7EF
:10290800280100248832010810B5044605F05EFE4F
:102918000349024620460BF0AAFE002010BD00BF66
:10292800B944010837B51346002205460A21019229
:1029380001AA586801F0AEFD019C4CB920EAE0708C
:102948000A2180FB01010FF0B2FB204603B030BD25
:102958002246034928460BF0A6FE019CF5E700BF76
:10296800E5440108034A044908B50BF080FE00203D
:1029780008BD00BFD2450108D9450108F7B517467B
:102988000023054601AA0A21B868019301F082FDD7
:102998001749C6B228460BF078FE019C44B122467E
:1029A800144928460BF07FFE019C204603B0F0BD79
:1029B800042E09D932461049284601240BF073FE2B
:1029C80028460BF0A5FEF0E77868FFF701FC021E29
:1029D80007DA7A68284609496FF015040BF063FE98
:1029E800E3E7334612B2214620460BF0F6FADCE75D
:1029F800FC4501086246010889460108A04601080D
:102A0800002307B50090694604488DF8043009F0A2
:102A180015FD9DF8040003B05DF804FBD1E2000841
:102A280010B5044605F0B4FD0749024620460BF0F0
:102A38001EFE204605490BF01AFE2146044809F0FF
:102A480017FD002010BD00BF32470108514701089B
:102A58005D2A000870B58EB004460D46D0F8A8600F
:102A68000FF060FA224A03460FF0A6FD1058214ADB
:102A78002149002B18BF1A46234600921F4A844258
:102A880018BF0A4628461E490BF0F1FD28461D4985
:102A9800D4E90A23CDE9002394F90E30227B0BF008
:102AA800E6FD06A92022204608F05EFF236F0246B5
:102AB800154928460BF0DBFD05A920460FF040FA22
:102AC800024628B1114928460BF0D1FD0EB070BD61
:102AD800059B64222846F11A4A4300910C49B2FB2F
:102AE800F6F2CDE9016232460BF0C1FDEEE700BF18
:102AF800080000005B4701080F440108C25B010899
:102B08005E4701086A47010896470108AD47010872
:102B1800DA470108F0B591B0002504461C2208AF39
:102B2800294609A8144E0FF04FFC1A2220213846D6
:102B38000FF04AFC2146114809F09AFC07AA4FF405
:102B4800006130460FF0F0F9079A64232046C2F579
:102B5800006100974B43DB0A05934FF40063CDE90E
:102B68000313CDE9013206492B46A6F140020BF0CA
:102B78007EFD284611B0F0BDC02000248D2B000832
:102B88002648010870B5044688B00D46D0F8A860FC
:102B980007A90FF0D5F9024628B10F4928460BF0CE
:102BA80066FD08B070BD20460FF0BCF9079B642293
:102BB8000096F11A4A43B2FBF6F2CDE90131074B10
:102BC8000749002818BF03462846CDE90362224674
:102BD8000BF04DFDE5E700BFAD4701085B47010875
:102BE8006F48010838B51346054610220021586879
:102BF8000AF004F80446FFF703FF38B922460E49E5
:102C080028460BF050FD6FF0150038BD0B4B0FF048
:102C1800D3FC1B589C4204D1094928460BF043FDBC
:102C2800F1E7204609F076F82846224605490BF0D8
:102C38001EFD0020E9E700BFD34801080800000096
:102C4800EE4801081649010838B513460546102212
:102C58000021586809F0D2FF0446FFF7D1FE38B9C1
:102C680022460E4928460BF01EFD6FF0150038BDB0
:102C78000B4B0FF0A1FC1B589C4204D10949284674
:102C88000BF011FDF1E7204609F062F928462246CB
:102C980005490BF0ECFC0020E9E700BFD348010828
:102CA80008000000554901087B49010838B513465A
:102CB800054610220021586809F0A0FF0446FFF7D6
:102CC8009FFE38B922460E4928460BF0ECFC6FF0FF
:102CD800150038BD0B4B0FF06FFC1B589C4204D1FC
:102CE800094928460BF0DFFCF1E7204602F032FCE8
:102CF8002846224605490BF0BAFC0020E9E700BF48
:102D0800D348010808000000B6490108DB4901085A
:102D180010B50C4600210BF089FF00B100680023B4
:102D2800024A2060E360C4E9012310BDED4A0108AE
:102D380010B50C4600210BF07DFF00B100680023A0
:102D4800024A2060E360C4E9012310BDED4A01088E
:102D580070B50646506815460BF070FF044640B93A
:102D68006FF012046A680F4930460BF09CFC20464D
:102D780070BD0EF0BCFF30B16A680B4930460024C4
:102D88000BF067FCF3E720460EF0DFFF044630B196
:102D980003466A68054930460BF085FCE7E76A6830
:102DA8000349EBE7134A0108284A01084A4A01087F
:102DB800774A01082DE9F04F8FB004460F46904638
:102DC80001A808F043FA2422019B082102FB003BDA
:102DD8002B4A20460BF030FC019D5D4503D30020B3
:102DE8000FB0BDE8F08F2E680EB1337833B902AE5C
:102DF8002B46244A302102A809F060FE022F07D191
:102E0800D8F8041030460FF062FB08B92435E4E71F
:102E180033461D4A082120460BF00EFC28460EF0CA
:102E280066FF1A4A1A4B0821002808BF1346194A98
:102E380020460BF001FC2B6A002BE7D01E68002E01
:102E4800E4D03368002BE1D0B2464FF00009124AB3
:102E5800082120460BF0F0FB3368104A4B4505D893
:102E68000F4A082120460BF0E7FBCFE75AF8043F4A
:102E78000821204609F101090BF0DEFBECE700BF51
:102E8800A14A0108AB4A0108B04A0108D03E01082E
:102E98009B4A0108214A0108B54A0108B14A0108BC
:102EA8000F4801081FB50C68D1E9043203944C6837
:102EB800013302F26C7202948C680194C968009123
:102EC80002490BF0D4FB04B010BD00BF374B01081A
:102ED800F7B5137806460F4615463A2B14D1541CFD
:102EE80023783A2B28D101340A2201A9204609F077
:102EF8000FFE019A03463860A24217D01078A8B98D
:102F08003C2B15D915490EE00A2201A9284609F0DB
:102F1800FFFD019CB860AC4208D023783A2B05D15C
:102F2800172807D90E4930460BF0BDFB6FF0150086
:102F380003B0F0BD0134D3E70A2201A9204609F005
:102F4800E7FD019B7860A342F0D01A783A2AEDD1C8
:102F58003B2801D90349E6E75C1CC5E7764B010825
:102F6800584B0108664B01082DE9F04190B00D4619
:102F78000446012002A91746FEF7F2FC07A902A899
:102F880009F0EEFC032D55D17D680A2201A92846D7
:102F980009F0BEFD019E8046B54215D032782D2A33
:102FA80012D101360A2201A9304609F0B1FD019B70
:102FB8009E4209D01A782D2A06D1451E0B2D0CD910
:102FC800284920460BF06FFB20460BF0A1FB6FF061
:102FD8001505284610B0BDE8F0815E1C0A2201A93B
:102FE800304609F095FD019B9E42EDD01B78002BE1
:102FF800EAD1431E1E2B01D91B49E2E7A8F26C73E4
:10300800BA680A90CDE90B5307A92046FFF760FF7D
:103018000028D9D107A8FEF7C5FDB1F1FF3F08BFC9
:10302800B0F1FF3FCDE9020108D1104920460BF06D
:103038003AFBCCE7022DC7D17A68E5E70023049371
:10304800012002A9FEF7C2FC054628B1024608493C
:1030580020460BF028FBBAE707A92046FFF722FF16
:10306800B7E700BF864B0108954B0108A24B010842
:10307800CB4B01082DE9F04114468846074610223B
:103088000021606809F0BAFDB8F1020F064607D8BA
:103098002023254A082138460BF0CEFA336816E07B
:1030A8000A220021A06809F0A9FD1F4AC5B208211B
:1030B80038462B460BF0C0FAB8F1030F1AD1102D81
:1030C8000CD0202DEAD0082D0BD13378DBB2174A6B
:1030D800082138460BF0B0FA002009E033889BB28B
:1030E800F5E73846124A08210BF0A6FA6FF01500EA
:1030F800BDE8F08110220021E06809F07FFD0D4A4B
:1031080003460446082138460BF096FA102D06D0DF
:10311800202D07D0082DE4D1E4B23470DCE7A4B246
:103128003480D9E73460D7E7104C01083B4C0108DC
:10313800254C01084C4C01082DE9F04F002387B0BD
:103148004FF0FF35914601930122504B20262C4623
:10315800DFF83CA1074688461A6002F095FD49460B
:103168005246404602F0B4FD411C06D16A1C41D1CA
:10317800484938460BF097FA17E073281AD0772891
:1031880028D0612811D1DFF810B101AA1021DBF88D
:10319800000001F07FF9019B0546002BDFD0DBF82A
:1031A80000203E4938460BF07EFA6FF0150007B054
:1031B800BDE8F08FDFF8E0B001AA0021DBF80000DD
:1031C80001F068F9019B0446002BC8D0DBF8002009
:1031D8003349E7E7DFF8C0B001AA0021DBF80000B7
:1031E80001F058F9019B0646002BB8D0DBF8002007
:1031F8002C49D7E7631C01D12B49BAE75FFA86F857
:10320800C6F3C406002C3FD002AB2946A6EB050C3A
:103218001A460CE0B8F1100F1DD0B8F1200F20D0DD
:10322800B8F1080F2AD10878187031443344A642FF
:1032380003D80CEB01001028ECD9102CA146294624
:10324800384628BF4FF0100910354B46A4EB090447
:1032580001F006F8D6E7088880B21870000A58709E
:10326800E3E708684FEA102E187083F801E04FEA88
:10327800104E000E83F802E0D870D6E70B4A0821FA
:1032880038460BF0D9F990E7204690E79C010024D6
:103298009A4C0108A14C010854120024604C010802
:1032A800734C0108864C0108BE4C0108254C0108E6
:1032B80070B50F4E04460D46337871B123B10D49F0
:1032C800BDE870400BF0EFB9012333700A4920467E
:1032D8000BF0CDF90123337004E083F00103337060
:1032E800002BF3D129462046BDE870400BF02ABADE
:1032F800A2140024D84C0108134D01082DE9F0410F
:1033080005460C468F18DFF8EC803B4EA74201D1EA
:10331800BDE8F08198F8002014F8013B182A22D162
:10332800112B20D1354C002635492846226888F8CB
:1033380000600BF09CF928463146FFF7B9FF314B86
:1033480018780028E4D1304A23681168042B2EDC51
:1033580008B12360116013F003012FD112681368BC
:103368001BBA1360D4E7A3F1300288F80030092AA9
:1033780004D923F02002413A052A04D83168234AA7
:103388005354013131603368022BBFD11022002120
:103398001E4809F033FC1E4A136803F8010B13603A
:1033A800164A13680133136000233360AEE70868D8
:1033B800043B00BA41F8040B0120C7E75B4203F065
:1033C800030358BF5942022904D1126813885BBA13
:1033D8009BB2C6E703299BD1106802681104C2F3A7
:1033E800074302F47F4201F47F010B431343036058
:1033F8008EE700BFA31400242C0F0024300F0024F4
:103408003D4D0108A4140024340F0024A514002401
:10341800380F00242DE9F84F00230C462A490646A8
:10342800DFF8A88015460B60DFF8A4902949DFF87B
:10343800A8B088F800300B60012C2F4655F804AF6F
:103448001ED90222494650460FF003F880B99AF86F
:103458000220003A18BF0122924420490222504615
:103468000EF0F7FF30B9012388F80030013CE3E79C
:103478000022F1E749465046FCF774FFA8B9043723
:1034880000227868114609F0B9FB0022144B114656
:103498001860786809F0B2FB124B1349186030467F
:1034A800FFF706FF0020BDE8F88F9AF800202D2AC4
:1034B800E6D19AF80120002AE2D052465946304611
:1034C8000BF0D5F8D2E700BF2C0F0024A414002479
:1034D800574D0108300F00245D4D01085A4D010871
:1034E800380F0024340F00240533000807B50A48B4
:1034F8000EF0FDFB60B10423084A0749009301233D
:103508001268074800F012FF002003B05DF804FBC2
:103518006FF01200F9E700BFD02801084C34010809
:10352800682F010810B54468A360C4E90012426816
:103538004021134653F8404B516302F1380153625E
:103548000023C2E9041308211363C2F8B8301162DA
:10355800C2E90A33C2E90633A36823B19B6C13B1ED
:10356800044920469847A3689B6A0BB120469847B0
:10357800002010BD813500082DE9F34705460C46AB
:1035880083685B6C03B19847AB685B6B73BB4FF0A8
:10359800000904F1240704F12808218E3846238DF8
:1035A800626B5B1A41469BB2D31A934228BF1346FB
:1035B80001AA0AF046FC8246002844D0AB6801996B
:1035C8009B69002B33D0024628469847064688B3A5
:1035D8003246414638464FF001090AF068FC564524
:1035E800DBD0D4E901310020984703E0284698470A
:1035F8000028CCD1AB685B6A002B37D1628B04F111
:103608001007E38A04F11A0838469B1A226A4146D1
:103618009BB2934228BF134601AA0AF012FC064641
:1036280058BB28460AF078FEC4F8B86031E06FF05D
:103638005706CDE70246414638460AF038FCB9F14C
:10364800000FD7D0CDE71748036813F0060F03D053
:10365800154A02210AF04DFDAB689B69002BEED09C
:1036680001220DF1030128469847E8E728469847C4
:103678000028C3D102B0BDE8F087AB6801995B6947
:1036880063B10246284698470246414638460AF042
:103698000EFC0120D4E901319847EBE76FF057029F
:1036A800F3E700BF18030024C44E010810B5816871
:1036B8000446183101F080F9A1682046024A183101
:1036C800BDE8104001F010B9064F010838B583680D
:1036D8000446D3F87832DB071DD4C0690BF0F3FD3C
:1036E800606803685B689847054620B9E0680BF096
:1036F800B7FFA3681D75A3685B6C13B12946204604
:103708009847A36800220EF057FFC3F89822034B8E
:10371800185801F01FFF6FF00F05ECE708000000D4
:1037280001490AF07FBE00BF0F4801082DE9F04F9C
:10373800A7B004465422002111A80EF045FE00232C
:103748002046CDE90533A368563302930BF091FB6D
:1037580020460BF0D6FA10B96069FFF7E1FFA068C0
:1037680014220021002618304FF0FF380EF02CFEEE
:1037780020460BF021FAA168E068B246B1F8502063
:1037880011AF5631B3463546B1460BF075FF2046AA
:103798000CF004F80396DDE90532012A6CD0132BEE
:1037A8006DD8B8F1000F2BD1BBF1000F0AD020461D
:1037B8000CF015F8A268142311A956320DEB03007A
:1037C8000BF079F8B9F1000F0CD099F81130FE2BF5
:1037D80008D1059B26AA02EB830252F8542C0AB1A1
:1037E80001330593A068059D436A002B40F0B5801E
:1037F800C6B1C3699E422BD000F118050D9622E090
:103808000223029A394606A80BF055F87A680699F9
:103818000346029231B101290AD148B1694A2046CA
:103828000BF0D5FB6FF00705284627B0BDE8F08FF1
:10383800059B002B32D0386801F0F0F898B166B1DA
:10384800A5680D9618350CAE0FCE0FC533682B60E2
:1038580020460125FFF72AFFE6E75B4A01212046BB
:103868000BF0B5FBDEE7059BC3B13A682946204655
:1038780001F078FA022809D1059B132B94D9069BED
:10388800022B91D1514B0121514AC8E7032805D099
:10389800059B4FF0010B013305937CE7039B2BB984
:1038A80007AA396848460BF0FDF80546043708F1C1
:1038B800FF38A5B3EB68BBF1000F08D0FBB1204679
:1038C8000BF0D7FA20460BF033FA424AC6E7B3B1F9
:1038D800A368AE46DDF814A003F1180CBEE80F008B
:1038E800ACE80F00DEF80030CCF80030AB6833B934
:1038F8006B7CFE2B04BF95F8108008F1FF38D5F8D3
:1039080004C0BCF1000F08D0AE460CAEBEE80F00F4
:103918000FC6DEF8003033606646A94603E0059B13
:1039280063B101230393069BB8F1000F02D1022B68
:103938007FF431AF059B013305932CE7A368DB6A5D
:1039480013B1DB68002BECD1234B0121234A20461D
:103958000093119B0BF03BFBE3E790F82830A5EBB5
:103968000A05BBB190F829104FF6FF72FF2918BF5E
:103978000A469D4202D313449D420BD98369012113
:10398800174A20460BF023FB20466FF01505FFF77A
:103998008DFE49E701210AF088FDA0680AF079FD4B
:1039A800A36811AA29465B6A204602EB8A02984757
:1039B8000546A0680AF071FD0021A0680AF075FDAF
:1039C80032E700BF144F0108284F0108894F01084A
:1039D800BB460108464F0108754F01086D520108A2
:1039E800AD4F0108F7B5044680680D46D0F8783227
:1039F8005A0705D500210AF063FDE0680BF002FEC6
:103A0800E368DB6873B9002D3BD0A66806F156075A
:103A180038460AF014FD002835D0394606F5AB7053
:103A2800FCF7AAFCA2680DF106032946E0685632A5
:103A38000BF0EBFD58B9A06800F5AB715630FCF7F8
:103A48009BFCA06856300AF0FAFCADF80600204648
:103A58000BF008FAA368D3F874329B0603D50B4918
:103A680060690AF0DFFC204600F07AFDA268BDF824
:103A780006302046A2F85230A268A2F850300BF067
:103A880057F903B0F0BD86F85601CBE7403101087D
:103A980010B50222836804461A7583689B6CBBB90B
:103AA8000AF097FC8368D3F87832DB040BD503213E
:103AB800084B094A0BF08BFAA0686FF4805100F5A7
:103AC8001E700AF0A0FC2046BDE8104000F0CEBEF3
:103AD80010BD00BFC84F0108B24A01082DE9F04FD8
:103AE80004468068B1B0012100F51E700AF07CFC24
:103AF800A3681B7D022B20D100230993A36860686B
:103B08009E6C03681D6909AB0EB310221BA9A84758
:103B1800099B93B10121A0680AF0C7FC099A1BA967
:103B28002046B0470021A0680AF0BFFCA3689B6C40
:103B3800002BE3D12046FFF7ABFFA0686FF001012F
:103B480000F51E7031B0BDE8F04F0AF05CBC0122F0
:103B58000DF12301A847099B002BEED09DF92320E6
:103B68009DF82330002AA068C8DB427D032A00F2B2
:103B7800F482DFE812F0040075028C02F2020D2BC9
:103B880067D00A2B43D0B0F87822092B6FF3CA020A
:103B9800A0F8782272D029D8002B00F00381082BD6
:103BA800A06800F0E9810246D2F87412890740F152
:103BB800F980013B162B00F2F580DFE813F0B7021D
:103BC800FA01FE01F601B1021002F300F300F3005E
:103BD800F30014021802F3002D02F3003202F3007E
:103BE800F300F300F3003402F30049021B2BA06832
:103BF80041D07F2B00F0CC81A3F1200102465E2941
:103C0800D2D801210AF05CFC9DF82310B8E0D0F866
:103C18007822C2F3C7022AB1D0F87822C2F3C702C9
:103C28000A2AC0D1B0F8782263F3CA02A0F8782231
:103C3800A568B5F85010C1B928460AF041FCE068FB
:103C48000BF0E0FC6069FFF76BFD2046FFF720FFF3
:103C580054E7D0F87822C2F3C702002AE2D0D0F89D
:103C68007822C2F3C7020D2ADBE72046FFF75EFD84
:103C7800C5F89C02E9E70123437593E0A068D0F8F2
:103C880074329B0740F18E8001210AF019FCA0686C
:103C9800B0F85030FF2B00F08580B0F8522000F1CA
:103CA800560100F5AB7000250EF066FBA3681BA952
:103CB8000BA8B3F85220134483F856511423A26872
:103CC80002F5AB720AF0F7FD0B9914296AD830ABEC
:103CD80003EB810343F8545CA368B3F85220002A2D
:103CE80052D0134493F85530202B02D0093B042BB3
:103CF8004AD800294BD100250A9530AA0A9B0026EC
:103D080002EB8303B346B04653F854AC37465046EB
:103D18000AF095FB814616AA3946284600F080FB32
:103D28000346002842D1012E68D130AA0A9B02EB33
:103D3800830353F8540C0AF082FBA26806464146F6
:103D48001832284600F06CFB056828460AF077FB15
:103D5800864205D0821BA919204692B20BF07EF943
:103D6800A068B0F85230034493F85630202B34D072
:103D7800093B042B31D9D0F87432DF0732D4202123
:103D8800204600F03BFD0DE00129B4D9013900209F
:103D98000CAB1BAA00930AAB01900AF0AFFE0546D4
:103DA8000028AAD160690AF0D3FCA7E61B684A4636
:103DB8005146184603930EF04CFB60B9039B184616
:103DC800FCF7E2FA584538BF5846002E08BFB846F7
:103DD80001361FFA80FB01379DE7012120460AF0D2
:103DE800DBFFDFE700210AF075FB2021204600F009
:103DF80005FD0121A0680AF06DFBD3E70490D1D935
:103E080030AB0A9AC14603EB820252F8543C18467A
:103E180003930AF014FB049BA2680590A2F84030B3
:103E28000496A2684946284609F10109183200F0AB
:103E3800F7FA039BD0F800A04BB1BAF1000F06D0F7
:103E4800059A194650460EF004FB0028E9D1A168EE
:103E5800BAF1000F4ED1A1F840A0049B013B049396
:103E6800DFD1606908F1010AFFF75AFC204600F02B
:103E7800FDFC30AA0A9B02EB830353F8540C0AF0AA
:103E8800DEFA414611AA8146284600F0C9FA0746DB
:103E9800A068FF22396800F5AB700EF0ECFA3B68B9
:103EA8004FF6FF770393B84616AA514628460AF1FB
:103EB800010B00F0B5FA002852D0A168002203686F
:103EC80001F2551111F801EF985C704503D110B15A
:103ED80001324245F6D1B9F1000F01D04A4507DB5E
:103EE800BA4206F1FF36A8BF3A46012E97B237D03C
:103EF800DA46D9E79A4806910AF0A1FA069900EB42
:103F08000B074A8FBFB20791121A504692FBF7F27D
:103F180092B206920AF093FA07993F1A069AB1F8F4
:103F28004000BFB200F1010CA1F840C0B0FBF2F1B3
:103F380002FB110080B260B9894B0621894A2046EC
:103F4800CDF800A00BF043F83946204600F0F2FA0D
:103F580083E75346844A062120460BF038F8F3E7F6
:103F6800002F3FF41FAFA7EB09020399204692B236
:103F780049440BF073F815E7D0F874329E077FF5C3
:103F880011AF01210AF09CFA20460BF088F809E7E6
:103F9800D0F874329D077FF505AF01210AF090FA39
:103FA800A368D3F874321807EED420460BF058F8FB
:103FB800F8E620460AF066FFF4E620460AF059FFC4
:103FC80020460AF09EFE10B96069FFF7A9FBA068B9
:103FD80001210AF075FA2046FFF75AFDE2E620466D
:103FE8000AF059FFDEE620460AF060FFDAE6D2F86A
:103FF80074329F0603D55D4960690AF013FAA36815
:10400800D3F874329E0603D5594960690AF00AFA52
:10401800204600F02BFCC5E600212046FFF7E2FC15
:10402800C0E60121F9E720460AF01CFF20460AF005
:10403800D0F90121A0680AF043FAA368D3F87432D2
:104048009D067FF5AFAE4B4960690AF0EBF9A9E62A
:10405800204600F0FFFA0121A0680AF031FAA1E633
:104068005B2B01D1022307E6D0F87422900706D50E
:10407800622B08D14FF0FF3120460AF0B5FEA36845
:1040880000225A758EE6662BF9D10121F4E7002249
:104098004275A268D2F8741289077FF52FAD313BBB
:1040A8001B2B3FF67FAE01A151F823F031410008E8
:1040B8003D4100085141000825410008AD3D000878
:1040C800AD3D0008AD3D0008AD3D0008AD3D000820
:1040D800AD3D0008AD3D0008AD3D0008AD3D000810
:1040E800AD3D0008AD3D0008AD3D00082B4000087F
:1040F80021400008E73F0008BB3F0008AD3D00082D
:1041080029410008AD3D000835410008AD3D0008D3
:10411800AD3D0008AD3D000841410008032353753B
:1041280020460AF0A6FE3DE60323537520460AF012
:1041380099FE37E603235375A068D0F8741201F08E
:10414800010181F0010156E603235375A368D3F8F2
:1041580074329B077FF526AE27E700238CE500BF66
:104168000E4401080C500108B24A01084531010803
:104178004A310108403101082DE9F34104468068BD
:10418800154600F51E7000293AD04FF480410AF018
:104198002BF9A3680021DD64606803689B68984771
:1041A80098BB20460AF0D4F978BB4FF0FF364FF0A1
:1041B800FF37174DDFF85C80A06800F51F700022FC
:1041C8000721CDE900670EF0D4F8A0680AF065F978
:1041D8002A46042120460AF09FF94246012120463A
:1041E8000AF09AF920460C4A02210AF095F960680B
:1041F80003685B6903B19847A0680AF04AF9DBE7EE
:104208006FF480410AF0FFF8C3E702B0BDE8F0811F
:10421800D5360008E53A000853E4000810B504460E
:104228000A490AF024FA0A4920460AF020FA2046E8
:1042380008490AF01CFA204607490AF018FA2046ED
:10424800064A002100F050FB002010BD1250010862
:1042580050500108AF500108035101089D51010851
:10426800F8B51E4617460A46294904460AF0FFF9DA
:104278003EB301253A78274920460AF0F8F96A073B
:1042880003D1254920460AF0F2F9AE421ED97A5DDB
:10429800204620490AF0EBF90135102DEFD11F49CE
:1042A80020460AF0E4F9B6B901251B4920460AF070
:1042B800DEF9AE422B4610D8174920460AF0D7F946
:1042C80015E00125164920460AF0D1F9144920467F
:1042D8000AF0CDF9E0E700252B46FA5C20461149A3
:1042E800A2F120035F2B28BF2E220AF0C0F9013566
:1042F800102D06D06B07DCD1074920460AF0B7F924
:10430800D7E720460849BDE8F8400AF0B0B900BF31
:10431800B3510108074401080F440108114401087A
:104328000D440108DA510108BA5101082DE9F0419C
:104338000446806888B08846D0F8986215461F46BB
:10434800002E52D14FF4287231460EF03DF8E06845
:104358000BF00AFAA06800F51F700DF0FEFFA068C8
:1043680000F52270012266F3820511460DF0C8FDA2
:10437800A36902211E60A06800F51E700AF034F8D7
:10438800A368502220465A871822A3681A872168F2
:104398000AF097F9A368164A4146C3F87452606850
:1043A80003681D682346A8470546D0B9A3680122BB
:1043B8001A75D4E90A010022002304950094CDE976
:1043C80006230E234FF4006203930E9BCDE901737D
:1043D800084B07F089FBA368C3F89802616A07F0E5
:1043E800B3FA284608B0BDE8F0816FF07705F8E722
:1043F8000DE500088141000810B5044613460A4639
:104408000146064801F0C6FB23691B7923B1204603
:10441800BDE810400AF09CB910BD00BF71E7000864
:1044280038B50B46154648B91449154A521AB3EB24
:10443800920F05D251F82350284638BD84680CB92C
:104448000025F9E70F4A94420AD30F4A944207D24B
:1044580018462268294690472B68002BECD1EFE7D5
:104468000A4A944202D30A4A944205D32468142281
:104478005343E518E358F0E70133F8E7982F0108AC
:10448800C82F0108F4300108FC300108C82F0108C2
:10449800F4300108F7B50378044616462D2B05D1EC
:1044A8006FF015030020336003B0F0BD00230C4FFC
:1044B8000EF082F80546C3510A46204601A908F0C5
:1044C8009DFBEB59222B02D16FF02103EAE7002B69
:1044D800E6D1019BA342E3D01B78002BE4D0DFE7B1
:1044E8000C0000008368D3F874329B0603D5024998
:1044F80040690AF0E7BB70475031010801490AF0EA
:10450800E1BB00BF0F4801080A1E0DDC0ED0422394
:104518008168D1F87412890608D5002A04494069CF
:10452800B8BF52420AF0CEBB4123F1E7704700BF43
:10453800D65101080A1E0DDC0ED044238168D1F83B
:104548007412890608D5002A04494069B8BF524246
:104558000AF0B8BB4323F1E7704700BFD651010802
:104568002DE9F04785680446DFF8649005F15600A8
:10457800FBF70AFF002386B295F83C709846A268BC
:10458800558FED1BB54209DB002E1FDD56336069E0
:1045980010491A44BDE8F0470AF094BB1D4456334D
:1045A80049462A4492F856A082F85680A268606963
:1045B8001A440AF087FBA3682B4483F856A0A36823
:1045C8005B8FDB1B0027F61A2B46D8E7BDE8F08780
:1045D800BB460108B24A010808290A4617D8836869
:1045E80093F83E10914212D083F83E20082A83683F
:1045F800D3F8743205D0990609D5054940690AF0FF
:1046080061BB9B0603D5034940690AF05BBB704751
:10461800DD5101085531010838B50D4609780446C1
:10462800FFF7DAFF6A78072A11D8A36893F83F10D2
:1046380091420CD083F83F20A368D3F874329B06CC
:1046480005D560690249BDE838400AF03BBB38BD72
:10465800E6510108F8B583680446B3F85020002AEB
:1046680055D0B3F85210002951D0553103F15605F1
:104678000B441846A84206D3014611F80169202EBA
:104688003CD0A8423CD286B2471C9DB2AB1B9BB221
:10469800591CD21A014438460DF07CFEA268711BE1
:1046A8002046B2F8503013FA81F309B2A2F850301C
:1046B800A368B3F850201344002283F856200AF068
:1046C8006BFBA368D3F874329A0603D51049606966
:1046D8000AF0F8FA3B460F4A082120460AF077FC10
:1046E8002046FFF7FFFEA368D3F874329B060ED569
:1046F80060690949BDE8F8400AF0E4BA0846B9E734
:10470800014611F80169202EBDD00846B9E7F8BD69
:104718005A310108B24A01085E3101082DE9F84F03
:1047280004460F4690460AB1FFF7DCFEA668D6F8A5
:104738007432B6F852505B0724D505F15600304460
:104748002B4EFBF721FE0546B5B9A368B3F85020F8
:10475800A3F85220A0680AF0C2FA30B1B8F1000FED
:1047680000D017B16069FFF7C9FE7942204609B247
:10477800BDE8F84F0AF010BB31466069013D0AF008
:10478800A1FAE1E73046AA46FBF7FEFDB6F85090DD
:10479800738F19FA80F915FA80F0B0FBF3F2B9FBC0
:1047A800F3F39A421BD0134D4845A368CDDA5A8FCC
:1047B800461CB0FBF2F302FB130313B96069FFF761
:1047C8009DFEA3680AF1010B20462A46534408219E
:1047D800DA4693F856300AF0FAFB3046E4E75635E5
:1047E800054A0821204673190AF0F1FBADE700BF1E
:1047F800C25B0108DA510108B24A010813B583689F
:1048080004468DF80710D3F87422D00725D5B3F8DD
:104818005210B3F850208A421FD0481C9DF8072038
:10482800A3F852000B4483F85620A368D3F87412F7
:10483800890710D5D3F87432606913F0040F0A4958
:1048480018BF2A220AF03EFA20460AF05AFA10B196
:104858006069FFF753FE02B010BD01220DF1070198
:1048680020460AF0C1FBF6E7DA51010810B5044604
:104878008368094A02210AF0AAFBA368D3F87432B4
:104888009B0707D52046FFF76BFE2046BDE8104082
:104898000AF05DBA10BD00BFB24A010801490AF02A
:1048A80087BD00BF0F480108F8B50F465168044698
:1048B80015461E4611B11A460AF087FDAB6883B14A
:1048C80031462046FFF736FE20463B46054A08217A
:1048D8000AF07DFBF21DA9682046BDE8F8400AF001
:1048E80074BDF8BDEF5101082DE9F04F0F460021C6
:1048F80089B0044616460D4603AA384601F1010858
:10490800FFF78EFDA8B98DB126B1324608212046A1
:104918000AF05DFB0021DFF89090DFF890B003AA61
:10492800384601F1010AFFF77BFD60B909B0BDE81F
:10493800F08F006810B1FBF727FD80B28542414631
:1049480038BF0546D8E7D0F80080B8F1000F0FD07F
:1049580098F8003063B146684B46154A082120464E
:10496800CDE900580AF033FB26B96069FFF796FFD6
:104978005146D4E74B465A46082120460AF027FB01
:10498800AB1DB2079BB209D131680A4A914205D1E1
:10499800324641462046FFF787FFE9E71A46314687
:1049A80020460AF012FDE3E70F520108024401080D
:1049B800FA510108C40BD286F7B50F6805460E46B2
:1049C800EFB13846FBF7E0FC84B2114B0821114ADD
:1049D800284600933B460AF0FAFAE31C71689BB23A
:1049E80079B18A070DD108680B4A904209D10A4665
:1049F8002846316803B0BDE8F040FFF755BF3C4694
:104A0800E3E71A46284603B0BDE8F0400AF0DDBCEB
:104A18000B5201080D500108C40BD28610B5074986
:104A28000446FBF79FFC38B105492046FBF79AFC82
:104A3800B0FA80F0400910BD0120FCE701520108DE
:104A48000452010810B583680446D3F874329B06F3
:104A580003D5064940690AF028FDA36850220020C2
:104A68005A871822A3681A8710BD00BF623101084F
:104A780008B5836902491A6809F0F9FD002008BDE4
:104A8800125201082DE9F3410E4905460E4C09F072
:104A9800EEFD0E4E0022DFF83880B44202F1010725
:104AA80003D3002002B0BDE8F081636A92B24146A8
:104AB80028460093303454F8283C09F0D8FD3A468B
:104AC800EBE700BF22520108682F0108982F010860
:104AD8003A520108024908B509F0F3FD002008BD63
:104AE8001048010873B5044600250D4EA2680DF163
:104AF80006030121E06802F5AB720AF086FDBDF8F5
:104B08000600A36840B12A4603F5AB733146204638
:104B1800013509F0ACFDE9E783F8560102B070BD34
:104B28004B52010810B5044609F004FE0349024639
:104B3800204609F09CFD002010BD00BF534D010820
:104B4800022907B50BD153680C4900930C4B126826
:104B580009F0A9FD6FF0150003B05DF804FB836848
:104B6800084AD3F87432084913F0020F074B18BFEC
:104B78001A4609F07CFD0020EEE700BF6A520108E2
:104B8800555201081E3F0108735201089A3C01085A
:104B980010B583680446D3F874329A0603D50749DA
:104BA80040690AF082FCA368D3F874329B0603D5E7
:104BB800034960690AF079FC002010BD69310108D9
:104BC8006E3101080129F0B5044685B00AD0536852
:104BD8005E4900935E4B126809F065FD6FF01500A1
:104BE80005B0F0BD8368D3F87432990603D55949E6
:104BF80040690AF05AFC6FF0F9012046FFF784FC7F
:104C0800FA2120460025FFF795FCA0684FF4807232
:104C1800294600F5AB708DF80B504FF47A760DF0FD
:104C2800D3FB4D4960690AF040FC606909F090FDCA
:104C3800606801220DF10B0103681F6903ABB847D7
:104C4800039BEBB9013E4FF47A700DF040F8B6B211
:104C5800002EEDD1A368D3F874329B0603D53F49E3
:104C680060690AF022FCA368502220463C495A8712
:104C78001822A3681A8709F008FD6FF00700AFE74C
:104C88009DF80B20A3681B2A52D093F856111B29B4
:104C9800CED1522A4CD15A19002382F85631A6682F
:104CA80096F857215B2A2AD106F25710022510F8E8
:104CB800011F2A4601353B29ADB223D1FF2AC9D0AD
:104CC80002F5AB7216FA82F1002211F8010F18BB37
:104CD800FA2A86F85601A16828BFFA22FA2B4A87D1
:104CE80028BFFA23A2681387A368D3F874329A06F8
:104CF80003D51A4960690AF0D8FB002070E786F8E6
:104D08005631A7E703EB83033039B5F5807F01EB14
:104D180043018BB2CBD19DE7013502EB82023038DB
:104D2800ADB200EB4200B5F5807F82B2CDD191E7FC
:104D38002B440135ADB283F85621092D7FF678AFA3
:104D4800A368002283F8562184E700BF6A5201084D
:104D58005552010874310108BE5201087831010822
:104D6800845201082DE9F04F074689B01546894657
:104D780021B110460AF0FEFC00285BD1032455E05F
:104D88005C463CE029460AF5AB700DF0A0FB0646F0
:104D9800002854D0FBF7F8FA314682B2601C08F1BB
:104DA8000108013230440DF0F5FA224659463046E2
:104DB8000DF0E2FA4FF020033355BAF854300133BE
:104DC8001C44AAF85440002401994B1C03AA4846E5
:104DD8000193FFF725FB0646E8B100223168284613
:104DE8000AF0A2FE0028EFD1D6F800B0D7F808A044
:104DF800BBF1000FC4D05846FBF7C6FA84B2BAF824
:104E080054302344FF2BBDDD01242B460D4A0321DA
:104E180038460AF0DCF8B8F1000F07D0B8682A461F
:104E280000F1540100F5AB7009F015FE204609B0F9
:104E3800BDE8F08F4FF0000802244146C5E7022480
:104E4800E9E700BF805701082DE9F843054600AFA0
:104E58000C46002948D0DFF8B890D9F800305A0736
:104E680042D06E468AB0A3686A46D1E90001DFF8ED
:104E7800A4C04FF00508C2E905C0C2E9071342F80B
:104E8800108F00234FF421514846FDF759FAD9F8FD
:104E98000030B5465B0727D08AB06369D4E90301BF
:104EA8006A46DFF874C0C2E90713C2E905C042F8D0
:104EB800108F002348464FF42151FDF741FAD9F8E5
:104EC8000030B54658070FD0E3690121134A484618
:104ED80009F018F9D9F80030590705D0A369104A24
:104EE8000121484609F00EF9012D0AD1EFF3058397
:104EF80007480268520704D00A4A103B294609F0BD
:104F080001F92146284606F0E5F9BD46BDE8F883D3
:104F18000C030024D857010807580108365801081F
:104F2800455801087358010830BFFFF7FDBF00BF9F
:104F38002DE9F0410B4E0546DFF82C80324606EB92
:104F48000807CC1B094920460DF016FAA019083CA1
:104F5800424600210DF038FA07F10800C5F8B440C0
:104F6800BDE8F0810000000008000000FC300108E6
:104F7800054B5A699B689A4204D0044A536843F027
:104F880080535360704700BFEC13002400ED00E02D
:104F9800F8B5374C06460D4623685B0703D03549FC
:104FA80020460AF04BFC344B9B6ADF0451D523683A
:104FB800580703D031492E480AF040FC17202E4BE1
:104FC8009B6A190507D523685A0703D02C49284836
:104FD8000AF034FC1820284FBB6A9B0519D52368B2
:104FE800580703D0274922480AF028FCBB6BBA6A45
:104FF80011040DD52268520704D0234A01211C4808
:1050080009F080F826B11C4A936A23F4004393629E
:105018001920194B9B6A5B0507D523685F0703D0E6
:105028001A4913480AF00AFC1A20134B9A6AD60543
:1050380011D52368590703D015490D480AF0FEFB1E
:105048001B200D4A936A43F47F43936200232B701D
:10505800F8BD1620B3E79B6A9A04F2D523685B076C
:1050680003D00C4902480AF0E9FB1C20E9E700BF1D
:105078000C0300248658010800ED00E09C58010844
:10508800AD580108C0580108D9580108EE58010860
:10509800095901082159010810B52D4C23685A07F0
:1050A80003D02C4920460AF0C9FB2B4B9B6A9B0175
:1050B8004BD52368580703D0284925480AF0BEFB7A
:1050C8001E20254B9B6AD90107D523685A0703D0B0
:1050D80023491F480AF0B2FB1F201F4B9B6A1B0382
:1050E80007D52368580703D01E4919480AF0A6FBBC
:1050F8002120194B9B6A590307D523685A0703D007
:10510800194913480AF09AFB2220134B9B6A9B0308
:1051180007D52368590703D014490D480AF08EFBB8
:1051280023200D4B9B6ADA0307D523685B0703D05E
:105138000F4907480AF082FB2420074A936A6FEA5E
:1051480003436FEA1343936210BD1D20B9E700BF04
:105158000C0300245059010800ED00E068590108CB
:105168007B59010895590108B3590108D859010814
:10517800F25901082DE9F047454D89468046174602
:105188002B68590703D0434928460AF057FB424B7E
:105198009B6ADA0639D52B685B0703D03F493C4840
:1051A8000AF04CFB11243C4B9B6A1E0707D52B6861
:1051B800580703D03A4936480AF040FB1224DFF872
:1051C800D8A0DAF82830990721D52B685A0703D0D8
:1051D80034492F480AF032FBDAF83460DAF828301C
:1051E8001B0651D52B685C0705D02F4A3346012191
:1051F800274808F087FFB9F1000F04D0264A936AC0
:1052080023F080039362132403E01024CBE76FF0AC
:105218001506214B9B6AD80707D52B68590703D079
:1052280022491B480AF00AFB14241B4B9B6A9A0666
:1052380007D52B685B0703D01D4915480AF0FEFA0D
:105248001524154B9A6AD50602D49A6A90070AD58E
:105258005B68190507D54146304600F03DFA10B1A4
:1052680080F3098802240C4B9A6A920603D55A6A7D
:1052780022F400525A629A6A204642F0FF029A6269
:1052880000233B70BDE8F0876FF01506BBE700BF51
:105298000C0300241D5A010800ED00E0335A0108F0
:1052A800AD580108665A01087E5A0108945A010847
:1052B800215901082DE9F041744B8AB004460025B4
:1052C800D3F8048000AFC8F3080685F31188BFF34C
:1052D8006F8F02F07F43B3F17F4F0AD102F00C03C6
:1052E800082B15D16A480368590702D069490AF0A2
:1052F800A5FA00252C460023FB71F31E092B00F2AA
:10530800A080DFE803F00A92958E9E9E9E9E9E984E
:1053180012074CBF0C460125EDE75D4E33685B076D
:1053280003D05D4930460AF089FA0023FB71574BD8
:10533800DA6A900708D53368590703D057495448A3
:105348000AF07CFA00233CE0DA6A002A04DA3368BF
:105358005A07F7D05249F2E7DB6A5B00F2D53368A7
:10536800580703D04F494A480AF068FA474BA169E1
:105378005A6942F480725A61BFF34F8FBFF36F8F3F
:105388005A6931F8021C22F480725A61BFF34F8FB8
:10539800BFF36F8F4DF60272914208D09A6AD2B26B
:1053A80092B3FA1D01212046FFF7E4FE3BE0336883
:1053B800590705D023683C4A0121354808F0A2FE68
:1053C8002368FA79E2B907F1080604F1200C20688D
:1053D800083454F8041C3246644503C21646F6D114
:1053E8007A6A002D4DD0C2F3080121B96FEA522222
:1053F8006FEA42227A6207F108011846FFF724FD96
:105408002837BD46BDE8F0819A6A12F47F4F04D070
:10541800F91D0120FFF7BCFD05E09B6AB3F5803F4D
:1054280090D3FFF739FE0346CBE7FA1D0021BAE710
:10543800F91D0020EEE7164803685A0782D01B4979
:105448007EE7134803685B073FF47CAF18F4F87FE6
:10545800174AE8468AB0174B18BF13466A461649DA
:10546800103EC2E905134FF40073D6611384134B41
:1054780042F8103F00234FF41151FCF761FFC54675
:1054880060E722F4FF7222F00102B3E700ED00E0CA
:105498000C030024E15A01080C5B0108235B010896
:1054A800445B0108525B0108715B01088D5B0108D0
:1054B800C85A0108B35A0108B15B01080400000189
:1054C800044B5A6942F010025A615A6922F00802E4
:1054D8005A61704700ED00E0EFF30880EFF30981AF
:1054E80001B57246FFF7E6FE01BD00BF0E4880F326
:1054F8000888102080F311880C484FF0AA014FF457
:1055080004620CF01EFC09484FF40461401880F353
:105518000988EFF314800221084380F31488BFF34D
:105528006F8F00F0A3F80000403A00248020002488
:10553800BFF34F8F0549064BCA6802F4E062134374
:10554800CB60BFF34F8F00BFFDE700BF00ED00E069
:105558000400FA05084B9B6883420BD1EFF30583DF
:1055680043B1064B5A6842F080525A605A6A22F494
:1055780000425A6206F018BEEC13002400ED00E069
:1055880015498A684FF030001044EFF3098C80E821
:10559800F01F102080F31288BFF36F8F0F4F4FF06A
:1055A80000664A698A603E60D2F8B4000C4C2060FC
:1055B800D2F8B8000023C2F8B83080F3118804B5D7
:1055C800104600F077F9BDE8044002F1300090E899
:1055D800F01F8CF309887047EC13002404ED00E0F9
:1055E800341200241EF0040F0CBFEFF30880EFF311
:1055F8000980816911F8021C0229FFD001B57246A1
:105608000AF011F901BD00BF00B2002807DB012331
:10561800410900F01F00024A834042F821307047D8
:1056280000E100E000B2013100284FEA0111C9B2DF
:1056380006DB00F1604000F5614080F80013704718
:1056480000F00F00014B1954704700BF14ED00E043
:10565800044B054A23F07F039360BFF34F8FBFF3DA
:105668006F8F70470000000800ED00E008B5FFF7F5
:10567800EFFF0C4AD2F8883023F47003C2F8883060
:10568800EFF3148323F0040383F31488BFF36F8FBD
:1056980005F020FF06F012FF00F05CF80AF0EDF8C4
:1056A80005F06AFF00ED00E042F8203C203A009B3C
:1056B80008495360019B21F001019360029B9161AD
:1056C800D3604FF08073D36100230265C0F8B8300F
:1056D800704700BF591A00080A4A0346906878B113
:1056E80013F1160FD0F8A40005D0A0F140029A4299
:1056F80005D8834203D2814228BF0020704700208A
:10570800704700BFEC13002415460D4A0E4608B535
:105718000C4B9060D0F8B4201A6000F0CBF82C46FF
:1057280086F309880020044B984720460021002270
:105738000023024C204700005BF80008591A0008B3
:10574800EC13002434120024014B10221A61704714
:1057580000ED00E0002304481021C2180133962B05
:1057680082F80013F9D1704700E100E008B5EFF3C3
:105778000583064A103B02EBC30152F8330049681F
:105788008847BDE80840FFF7F3BB00BF3C29010884
:10579800154A70B5536913F4803323D1C2F88430A5
:1057A800BFF34F8FD2F8803043F6E074C3F3C900DB
:1057B800C3F34E335B0103EA0406014646EA8175EA
:1057C8000139C2F86052F9D2203B13F1200FF2D10F
:1057D800BFF34F8F536943F480335361BFF34F8F47
:1057E800BFF36F8F70BD00BF00ED00E0134A0023C8
:1057F80070B5C2F88430BFF34F8F536923F48033F8
:105808005361BFF34F8FD2F8803043F6E074C3F38F
:10581800C900C3F34E335B0103EA0406014646EAB6
:1058280081750139C2F87452F9D2203B13F1200F67
:10583800F2D1BFF34F8FBFF36F8F70BD00ED00E063
:105848000B4B5A6912F4003211D1BFF34F8FBFF3DB
:105858006F8FC3F85022BFF34F8FBFF36F8F5A6912
:1058680042F400325A61BFF34F8FBFF36F8F704716
:1058780000ED00E0BFF34F8FBFF36F8F064B5A69FF
:1058880022F400325A610022C3F85022BFF34F8F2E
:10589800BFF36F8F704700BF00ED00E0024B01219E
:1058A800024A034800F092B80000082400000024CF
:1058B800B0370108D0F8A4204021054B403A1846DB
:1058C8001A60044AC3E90112012100F089B800BF37
:1058D8003812002400000B1508B503461148D0F80B
:1058E8009020C2F30722013A93420AD90E4802686F
:1058F800520703D00D4A012108F004FC6FF015008F
:1059080008BDC0F898300A6822F01F021A4342F016
:105918001002C0F89C208A6842F00102C0F8A0205A
:105928001846EDE700ED00E008030024C85B010815
:10593800F0B50E4685B01F4604460025B54210DA7C
:10594800606828B3AFB1431E18420DD012480368EF
:105958005B0704D0114A2B46012108F0D3FB6FF0F6
:105968001502104605B0F0BD1F28EFD921680B427B
:10597800ECD1236801A9019309F080FFA3680343D0
:10598800D0B20393FFF7A8FF10F1160FE7D0421C1F
:1059980001350C34D2E700BF08030024EE5B010890
:1059A800044B0522C3F89420BFF34F8FBFF36F8FCA
:1059B800704700BF00ED00E0BFF35F8F024B00228D
:1059C800C3F89420704700BF00ED00E010B5034C09
:1059D80001232278FFF7ACFF207010BDC514002406
:1059E8000B4A08B500231278FFF7A2FF10F1160F33
:1059F80007D0084A0021D2F89030C3F30723984211
:105A080000DB08BDC2F898000130C2F8A010F2E728
:105A1800C514002400ED00E0584859492DE9F04329
:105A2800D0F8903085B00D68C3F307239D4200F28B
:105A3800A180FFF7C1FF49680022954201F10C01DE
:105A48001AD1504C6846504F2570FCF731FF00259D
:105A58000646DFF83881DFF83891AE421FD1237847
:105A680000204649D1F89020C2F3072293427BDBFD
:105A78000020FFF795FF4CE0C0F8982051F80C3C47
:105A880023F01F031343013243F01003C0F89C3086
:105A980051F8043C43F00103C0F8A030CDE700986A
:105AA8004FEA051C00EB0511CB683B40B3F5000F2E
:105AB80044D00AD8B3F5001F2ED0B3F5800F34D0E8
:105AC800B3F5801F10D00135C7E7B3F1807F3ED012
:105AD800B3F1007FF7D150F80C30886809F0CEFE9A
:105AE8004A6840F4802009E050F80C30886809F0D2
:105AF800C5FE40F088504A6840F43020039001A960
:105B08002078CDE90123FFF7E7FE002828DA6FF0B7
:105B1800150005B0BDE8F08350F80C30886809F02E
:105B2800ADFE4A6840EA0800E8E750F80C3088689B
:105B380009F0A4FE4A6840EA0900DFE750F80C3093
:105B4800886809F09BFE4A6840F08270D6E750F8F2
:105B58000C30886809F092FE4A6840F08870CDE7FA
:105B6800237801332370AEE7C1F898300133C1F8C8
:105B7800A00077E74FF0FF30CBE700BF00ED00E073
:105B8800F8310108C51400240000F0FF00000811D6
:105B980000000202F0B587B007460E461446002101
:105BA800102268461D460CF00FFC02232A462146A7
:105BB8008DF802306846044BCDE90476019307F06E
:105BC80083F807B0F0BD00BFA5F8000808B5024B80
:105BD8001B689847002008BD44120024034B044A60
:105BE8001860937843F002039370704744120024BE
:105BF800600100240649074821F00701C1F110524D
:105C080008B502F5002207F0C5FD002008BD00BF59
:105C1800E73F0024481200244FF0FF324FF0FF33D3
:105C2800014805F06FBD00BF70010024014805F070
:105C3800E1BD00BF7001002438B50546FFF7ECFF51
:105C4800082108482A4607F026FD044628B925B148
:105C5800054B0C220CF0B0FC1A50FFF7E7FF20466A
:105C680038BD00BF481200240C00000010B50446DF
:105C7800FFF7D2FF0348214607F0BCFCBDE81040FF
:105C8800FFF7D4BF4812002408B500F0B7F80A4956
:105C980001220023416109490361C0E900220A6029
:105CA80007490A60074A1360074A1360074AC0E9B0
:105CB8000233136008BD00BF10480108A00100248A
:105CC8009C0100245C120024581200245412002461
:105CD8002DE9F04107460E46154600F08FF8C368D7
:105CE80004461BB943691A78002A41D10023E360AE
